{
  "_format": "hh-sol-artifact-1",
  "contractName": "LandRegistrationSystem",
  "sourceName": "contracts/LandRegistrationSystem.sol",
  "abi": [
    {
      "inputs": [],
      "stateMutability": "nonpayable",
      "type": "constructor"
    },
    {
      "anonymous": false,
      "inputs": [
        {
          "indexed": false,
          "internalType": "address",
          "name": "recipient",
          "type": "address"
        },
        {
          "indexed": false,
          "internalType": "uint256",
          "name": "taskId",
          "type": "uint256"
        }
      ],
      "name": "AddLand",
      "type": "event"
    },
    {
      "anonymous": false,
      "inputs": [
        {
          "indexed": false,
          "internalType": "address",
          "name": "recipient",
          "type": "address"
        },
        {
          "indexed": false,
          "internalType": "uint256",
          "name": "taskId",
          "type": "uint256"
        }
      ],
      "name": "AddUser",
      "type": "event"
    },
    {
      "anonymous": false,
      "inputs": [
        {
          "indexed": false,
          "internalType": "address",
          "name": "recipient",
          "type": "address"
        },
        {
          "indexed": false,
          "internalType": "uint256",
          "name": "taskId",
          "type": "uint256"
        }
      ],
      "name": "AddlandInspector",
      "type": "event"
    },
    {
      "anonymous": false,
      "inputs": [
        {
          "indexed": true,
          "internalType": "address",
          "name": "_seller",
          "type": "address"
        },
        {
          "indexed": true,
          "internalType": "address",
          "name": "_buyer",
          "type": "address"
        },
        {
          "indexed": false,
          "internalType": "uint256",
          "name": "_value",
          "type": "uint256"
        }
      ],
      "name": "LandSold",
      "type": "event"
    },
    {
      "inputs": [
        {
          "internalType": "uint256",
          "name": "landId",
          "type": "uint256"
        }
      ],
      "name": "buyLand",
      "outputs": [],
      "stateMutability": "payable",
      "type": "function"
    },
    {
      "inputs": [
        {
          "internalType": "uint256",
          "name": "landId",
          "type": "uint256"
        }
      ],
      "name": "cancelSale",
      "outputs": [],
      "stateMutability": "nonpayable",
      "type": "function"
    },
    {
      "inputs": [],
      "name": "countOwnerLands",
      "outputs": [
        {
          "internalType": "uint256",
          "name": "",
          "type": "uint256"
        }
      ],
      "stateMutability": "view",
      "type": "function"
    },
    {
      "inputs": [
        {
          "internalType": "string",
          "name": "_city",
          "type": "string"
        },
        {
          "internalType": "string",
          "name": "_district",
          "type": "string"
        },
        {
          "internalType": "string",
          "name": "_state",
          "type": "string"
        },
        {
          "internalType": "string",
          "name": "_propertyNumber",
          "type": "string"
        },
        {
          "internalType": "uint256",
          "name": "_marketValue",
          "type": "uint256"
        },
        {
          "internalType": "uint256",
          "name": "_size",
          "type": "uint256"
        },
        {
          "internalType": "string",
          "name": "_landDocument",
          "type": "string"
        }
      ],
      "name": "createLand",
      "outputs": [],
      "stateMutability": "nonpayable",
      "type": "function"
    },
    {
      "inputs": [
        {
          "internalType": "address",
          "name": "_walletAddress",
          "type": "address"
        },
        {
          "internalType": "string",
          "name": "_district",
          "type": "string"
        },
        {
          "internalType": "string",
          "name": "_city",
          "type": "string"
        }
      ],
      "name": "createLandInspector",
      "outputs": [],
      "stateMutability": "nonpayable",
      "type": "function"
    },
    {
      "inputs": [
        {
          "internalType": "string",
          "name": "_emailAddress",
          "type": "string"
        },
        {
          "internalType": "string",
          "name": "_firstName",
          "type": "string"
        },
        {
          "internalType": "string",
          "name": "_lastName",
          "type": "string"
        },
        {
          "internalType": "string",
          "name": "_contact",
          "type": "string"
        },
        {
          "internalType": "string",
          "name": "_residentialAddress",
          "type": "string"
        },
        {
          "internalType": "string",
          "name": "_ghanaCard",
          "type": "string"
        }
      ],
      "name": "createUser",
      "outputs": [],
      "stateMutability": "nonpayable",
      "type": "function"
    },
    {
      "inputs": [],
      "name": "getInspectors",
      "outputs": [
        {
          "components": [
            {
              "internalType": "uint256",
              "name": "inspectorId",
              "type": "uint256"
            },
            {
              "internalType": "address",
              "name": "walletAddress",
              "type": "address"
            },
            {
              "internalType": "string",
              "name": "district",
              "type": "string"
            },
            {
              "internalType": "string",
              "name": "city",
              "type": "string"
            },
            {
              "internalType": "uint256",
              "name": "verifiedUser",
              "type": "uint256"
            },
            {
              "internalType": "uint256",
              "name": "verifiedLand",
              "type": "uint256"
            }
          ],
          "internalType": "struct LandRegistrationSystem.LandInspector[]",
          "name": "",
          "type": "tuple[]"
        }
      ],
      "stateMutability": "view",
      "type": "function"
    },
    {
      "inputs": [
        {
          "internalType": "uint256",
          "name": "landId",
          "type": "uint256"
        }
      ],
      "name": "getLandDetails",
      "outputs": [
        {
          "internalType": "string",
          "name": "",
          "type": "string"
        },
        {
          "internalType": "string",
          "name": "",
          "type": "string"
        },
        {
          "internalType": "string",
          "name": "",
          "type": "string"
        },
        {
          "internalType": "uint256",
          "name": "",
          "type": "uint256"
        },
        {
          "internalType": "uint256",
          "name": "",
          "type": "uint256"
        },
        {
          "internalType": "bool",
          "name": "",
          "type": "bool"
        }
      ],
      "stateMutability": "view",
      "type": "function"
    },
    {
      "inputs": [],
      "name": "getLands",
      "outputs": [
        {
          "components": [
            {
              "internalType": "uint256",
              "name": "landId",
              "type": "uint256"
            },
            {
              "internalType": "string",
              "name": "city",
              "type": "string"
            },
            {
              "internalType": "string",
              "name": "district",
              "type": "string"
            },
            {
              "internalType": "string",
              "name": "state",
              "type": "string"
            },
            {
              "internalType": "address",
              "name": "owner",
              "type": "address"
            },
            {
              "internalType": "uint256",
              "name": "marketValue",
              "type": "uint256"
            },
            {
              "internalType": "string",
              "name": "propertyNumber",
              "type": "string"
            },
            {
              "internalType": "uint256",
              "name": "size",
              "type": "uint256"
            },
            {
              "internalType": "string",
              "name": "landDocument",
              "type": "string"
            },
            {
              "internalType": "bool",
              "name": "verified",
              "type": "bool"
            },
            {
              "internalType": "bool",
              "name": "forSell",
              "type": "bool"
            }
          ],
          "internalType": "struct LandRegistrationSystem.Land[]",
          "name": "",
          "type": "tuple[]"
        }
      ],
      "stateMutability": "view",
      "type": "function"
    },
    {
      "inputs": [],
      "name": "getNonVerifiedLands",
      "outputs": [
        {
          "components": [
            {
              "internalType": "uint256",
              "name": "landId",
              "type": "uint256"
            },
            {
              "internalType": "string",
              "name": "city",
              "type": "string"
            },
            {
              "internalType": "string",
              "name": "district",
              "type": "string"
            },
            {
              "internalType": "string",
              "name": "state",
              "type": "string"
            },
            {
              "internalType": "address",
              "name": "owner",
              "type": "address"
            },
            {
              "internalType": "uint256",
              "name": "marketValue",
              "type": "uint256"
            },
            {
              "internalType": "string",
              "name": "propertyNumber",
              "type": "string"
            },
            {
              "internalType": "uint256",
              "name": "size",
              "type": "uint256"
            },
            {
              "internalType": "string",
              "name": "landDocument",
              "type": "string"
            },
            {
              "internalType": "bool",
              "name": "verified",
              "type": "bool"
            },
            {
              "internalType": "bool",
              "name": "forSell",
              "type": "bool"
            }
          ],
          "internalType": "struct LandRegistrationSystem.Land[]",
          "name": "",
          "type": "tuple[]"
        }
      ],
      "stateMutability": "view",
      "type": "function"
    },
    {
      "inputs": [],
      "name": "getNonVerifiedUsers",
      "outputs": [
        {
          "components": [
            {
              "internalType": "uint256",
              "name": "userId",
              "type": "uint256"
            },
            {
              "internalType": "address",
              "name": "walletAddress",
              "type": "address"
            },
            {
              "internalType": "string",
              "name": "emailAddress",
              "type": "string"
            },
            {
              "internalType": "string",
              "name": "firstName",
              "type": "string"
            },
            {
              "internalType": "string",
              "name": "lastName",
              "type": "string"
            },
            {
              "internalType": "string",
              "name": "contact",
              "type": "string"
            },
            {
              "internalType": "string",
              "name": "residentialAddress",
              "type": "string"
            },
            {
              "internalType": "string",
              "name": "ghanaCard",
              "type": "string"
            },
            {
              "internalType": "uint256",
              "name": "landSold",
              "type": "uint256"
            },
            {
              "internalType": "bool",
              "name": "verified",
              "type": "bool"
            }
          ],
          "internalType": "struct LandRegistrationSystem.User[]",
          "name": "",
          "type": "tuple[]"
        }
      ],
      "stateMutability": "view",
      "type": "function"
    },
    {
      "inputs": [],
      "name": "getOwnerLands",
      "outputs": [
        {
          "components": [
            {
              "internalType": "uint256",
              "name": "landId",
              "type": "uint256"
            },
            {
              "internalType": "string",
              "name": "city",
              "type": "string"
            },
            {
              "internalType": "string",
              "name": "district",
              "type": "string"
            },
            {
              "internalType": "string",
              "name": "state",
              "type": "string"
            },
            {
              "internalType": "address",
              "name": "owner",
              "type": "address"
            },
            {
              "internalType": "uint256",
              "name": "marketValue",
              "type": "uint256"
            },
            {
              "internalType": "string",
              "name": "propertyNumber",
              "type": "string"
            },
            {
              "internalType": "uint256",
              "name": "size",
              "type": "uint256"
            },
            {
              "internalType": "string",
              "name": "landDocument",
              "type": "string"
            },
            {
              "internalType": "bool",
              "name": "verified",
              "type": "bool"
            },
            {
              "internalType": "bool",
              "name": "forSell",
              "type": "bool"
            }
          ],
          "internalType": "struct LandRegistrationSystem.Land[]",
          "name": "",
          "type": "tuple[]"
        }
      ],
      "stateMutability": "view",
      "type": "function"
    },
    {
      "inputs": [],
      "name": "getUsers",
      "outputs": [
        {
          "components": [
            {
              "internalType": "uint256",
              "name": "userId",
              "type": "uint256"
            },
            {
              "internalType": "address",
              "name": "walletAddress",
              "type": "address"
            },
            {
              "internalType": "string",
              "name": "emailAddress",
              "type": "string"
            },
            {
              "internalType": "string",
              "name": "firstName",
              "type": "string"
            },
            {
              "internalType": "string",
              "name": "lastName",
              "type": "string"
            },
            {
              "internalType": "string",
              "name": "contact",
              "type": "string"
            },
            {
              "internalType": "string",
              "name": "residentialAddress",
              "type": "string"
            },
            {
              "internalType": "string",
              "name": "ghanaCard",
              "type": "string"
            },
            {
              "internalType": "uint256",
              "name": "landSold",
              "type": "uint256"
            },
            {
              "internalType": "bool",
              "name": "verified",
              "type": "bool"
            }
          ],
          "internalType": "struct LandRegistrationSystem.User[]",
          "name": "",
          "type": "tuple[]"
        }
      ],
      "stateMutability": "view",
      "type": "function"
    },
    {
      "inputs": [
        {
          "internalType": "uint256",
          "name": "",
          "type": "uint256"
        }
      ],
      "name": "landInspectors",
      "outputs": [
        {
          "internalType": "address",
          "name": "",
          "type": "address"
        }
      ],
      "stateMutability": "view",
      "type": "function"
    },
    {
      "inputs": [
        {
          "internalType": "uint256",
          "name": "",
          "type": "uint256"
        }
      ],
      "name": "lands",
      "outputs": [
        {
          "internalType": "address",
          "name": "",
          "type": "address"
        }
      ],
      "stateMutability": "view",
      "type": "function"
    },
    {
      "inputs": [
        {
          "internalType": "string",
          "name": "_keyword",
          "type": "string"
        }
      ],
      "name": "searchLands",
      "outputs": [
        {
          "components": [
            {
              "internalType": "uint256",
              "name": "landId",
              "type": "uint256"
            },
            {
              "internalType": "string",
              "name": "city",
              "type": "string"
            },
            {
              "internalType": "string",
              "name": "district",
              "type": "string"
            },
            {
              "internalType": "string",
              "name": "state",
              "type": "string"
            },
            {
              "internalType": "address",
              "name": "owner",
              "type": "address"
            },
            {
              "internalType": "uint256",
              "name": "marketValue",
              "type": "uint256"
            },
            {
              "internalType": "string",
              "name": "propertyNumber",
              "type": "string"
            },
            {
              "internalType": "uint256",
              "name": "size",
              "type": "uint256"
            },
            {
              "internalType": "string",
              "name": "landDocument",
              "type": "string"
            },
            {
              "internalType": "bool",
              "name": "verified",
              "type": "bool"
            },
            {
              "internalType": "bool",
              "name": "forSell",
              "type": "bool"
            }
          ],
          "internalType": "struct LandRegistrationSystem.Land[]",
          "name": "",
          "type": "tuple[]"
        }
      ],
      "stateMutability": "view",
      "type": "function"
    },
    {
      "inputs": [
        {
          "internalType": "string",
          "name": "_keyword",
          "type": "string"
        }
      ],
      "name": "searchLandsforInspector",
      "outputs": [
        {
          "components": [
            {
              "internalType": "uint256",
              "name": "landId",
              "type": "uint256"
            },
            {
              "internalType": "string",
              "name": "city",
              "type": "string"
            },
            {
              "internalType": "string",
              "name": "district",
              "type": "string"
            },
            {
              "internalType": "string",
              "name": "state",
              "type": "string"
            },
            {
              "internalType": "address",
              "name": "owner",
              "type": "address"
            },
            {
              "internalType": "uint256",
              "name": "marketValue",
              "type": "uint256"
            },
            {
              "internalType": "string",
              "name": "propertyNumber",
              "type": "string"
            },
            {
              "internalType": "uint256",
              "name": "size",
              "type": "uint256"
            },
            {
              "internalType": "string",
              "name": "landDocument",
              "type": "string"
            },
            {
              "internalType": "bool",
              "name": "verified",
              "type": "bool"
            },
            {
              "internalType": "bool",
              "name": "forSell",
              "type": "bool"
            }
          ],
          "internalType": "struct LandRegistrationSystem.Land[]",
          "name": "",
          "type": "tuple[]"
        }
      ],
      "stateMutability": "view",
      "type": "function"
    },
    {
      "inputs": [
        {
          "internalType": "uint256",
          "name": "landId",
          "type": "uint256"
        }
      ],
      "name": "setLandForSale",
      "outputs": [],
      "stateMutability": "nonpayable",
      "type": "function"
    },
    {
      "inputs": [],
      "name": "unverifiedOwnerLands",
      "outputs": [
        {
          "components": [
            {
              "internalType": "uint256",
              "name": "landId",
              "type": "uint256"
            },
            {
              "internalType": "string",
              "name": "city",
              "type": "string"
            },
            {
              "internalType": "string",
              "name": "district",
              "type": "string"
            },
            {
              "internalType": "string",
              "name": "state",
              "type": "string"
            },
            {
              "internalType": "address",
              "name": "owner",
              "type": "address"
            },
            {
              "internalType": "uint256",
              "name": "marketValue",
              "type": "uint256"
            },
            {
              "internalType": "string",
              "name": "propertyNumber",
              "type": "string"
            },
            {
              "internalType": "uint256",
              "name": "size",
              "type": "uint256"
            },
            {
              "internalType": "string",
              "name": "landDocument",
              "type": "string"
            },
            {
              "internalType": "bool",
              "name": "verified",
              "type": "bool"
            },
            {
              "internalType": "bool",
              "name": "forSell",
              "type": "bool"
            }
          ],
          "internalType": "struct LandRegistrationSystem.Land[]",
          "name": "",
          "type": "tuple[]"
        }
      ],
      "stateMutability": "view",
      "type": "function"
    },
    {
      "inputs": [
        {
          "internalType": "uint256",
          "name": "",
          "type": "uint256"
        }
      ],
      "name": "users",
      "outputs": [
        {
          "internalType": "address",
          "name": "",
          "type": "address"
        }
      ],
      "stateMutability": "view",
      "type": "function"
    },
    {
      "inputs": [
        {
          "internalType": "uint256",
          "name": "landId",
          "type": "uint256"
        }
      ],
      "name": "verifyLand",
      "outputs": [],
      "stateMutability": "nonpayable",
      "type": "function"
    },
    {
      "inputs": [
        {
          "internalType": "uint256",
          "name": "userId",
          "type": "uint256"
        }
      ],
      "name": "verifyUser",
      "outputs": [],
      "stateMutability": "nonpayable",
      "type": "function"
    }
  ],
  "bytecode": "0x608060405234801561001057600080fd5b50600380546001600160a01b03191633179055615f7380620000336000396000f3fe6080604052600436106101045760003560e01c8062ce8e3e1461010957806301dadb2b146101345780630638d0071461015657806314636ae3146101a457806329bb8bdb146101b9578063365b98b2146101d95780633a75cdfe1461020f57806342365eb81461023157806354447329146102515780636ee30afe146102665780636fe0c906146102865780637ac4ba361461029b5780637f289850146102bb578063807d61f5146102de5780638e6b8ed3146102fe578063bd94b00514610320578063c0ee11de14610340578063c133c42b14610360578063ced3955814610375578063e261f1e514610388578063f9c43bdf146103be578063fe0cb7dc146103de575b600080fd5b34801561011557600080fd5b5061011e610410565b60405161012b919061552f565b60405180910390f35b34801561014057600080fd5b5061015461014f366004615706565b61095a565b005b34801561016257600080fd5b5061018c6101713660046157fa565b6005602052600090815260409020546001600160a01b031681565b6040516001600160a01b03909116815260200161012b565b3480156101b057600080fd5b5061011e610d17565b3480156101c557600080fd5b506101546101d43660046157fa565b61128a565b3480156101e557600080fd5b5061018c6101f43660046157fa565b6004602052600090815260409020546001600160a01b031681565b34801561021b57600080fd5b50610224611303565b60405161012b9190615813565b34801561023d57600080fd5b5061015461024c3660046157fa565b611807565b34801561025d57600080fd5b50610224611a24565b34801561027257600080fd5b50610224610281366004615936565b611f2c565b34801561029257600080fd5b506102246129d4565b3480156102a757600080fd5b506102246102b6366004615936565b612e86565b3480156102c757600080fd5b506102d0613801565b60405190815260200161012b565b3480156102ea57600080fd5b506101546102f9366004615972565b613c62565b34801561030a57600080fd5b50610313613e69565b60405161012b91906159f3565b34801561032c57600080fd5b5061015461033b3660046157fa565b61415a565b34801561034c57600080fd5b5061015461035b366004615aa0565b6141a6565b34801561036c57600080fd5b50610224614588565b6101546103833660046157fa565b614a6b565b34801561039457600080fd5b5061018c6103a33660046157fa565b6006602052600090815260409020546001600160a01b031681565b3480156103ca57600080fd5b506101546103d93660046157fa565b614d70565b3480156103ea57600080fd5b506103fe6103f93660046157fa565b614f7f565b60405161012b96959493929190615b84565b6001546060906000906001600160401b0381111561043057610430615664565b60405190808252806020026020018201604052801561046957816020015b6104566153ce565b81526020019060019003908161044e5790505b5090506000805b6001548110156108a6576001818154811061048d5761048d615bde565b90600052602060002090600a020160405180610140016040529081600082015481526020016001820160009054906101000a90046001600160a01b03166001600160a01b03166001600160a01b031681526020016002820180546104f090615bf4565b80601f016020809104026020016040519081016040528092919081815260200182805461051c90615bf4565b80156105695780601f1061053e57610100808354040283529160200191610569565b820191906000526020600020905b81548152906001019060200180831161054c57829003601f168201915b5050505050815260200160038201805461058290615bf4565b80601f01602080910402602001604051908101604052809291908181526020018280546105ae90615bf4565b80156105fb5780601f106105d0576101008083540402835291602001916105fb565b820191906000526020600020905b8154815290600101906020018083116105de57829003601f168201915b5050505050815260200160048201805461061490615bf4565b80601f016020809104026020016040519081016040528092919081815260200182805461064090615bf4565b801561068d5780601f106106625761010080835404028352916020019161068d565b820191906000526020600020905b81548152906001019060200180831161067057829003601f168201915b505050505081526020016005820180546106a690615bf4565b80601f01602080910402602001604051908101604052809291908181526020018280546106d290615bf4565b801561071f5780601f106106f45761010080835404028352916020019161071f565b820191906000526020600020905b81548152906001019060200180831161070257829003601f168201915b5050505050815260200160068201805461073890615bf4565b80601f016020809104026020016040519081016040528092919081815260200182805461076490615bf4565b80156107b15780601f10610786576101008083540402835291602001916107b1565b820191906000526020600020905b81548152906001019060200180831161079457829003601f168201915b505050505081526020016007820180546107ca90615bf4565b80601f01602080910402602001604051908101604052809291908181526020018280546107f690615bf4565b80156108435780601f1061081857610100808354040283529160200191610843565b820191906000526020600020905b81548152906001019060200180831161082657829003601f168201915b50505091835250506008820154602082015260099091015460ff161515604090910152835184908490811061087a5761087a615bde565b6020026020010181905250818061089090615c44565b925050808061089e90615c44565b915050610470565b506000816001600160401b038111156108c1576108c1615664565b6040519080825280602002602001820160405280156108fa57816020015b6108e76153ce565b8152602001906001900390816108df5790505b50905060005b828110156109525783818151811061091a5761091a615bde565b602002602001015182828151811061093457610934615bde565b6020026020010181905250808061094a90615c44565b915050610900565b509392505050565b60008651116109ac5760405162461bcd60e51b8152602060048201526019602482015278115b585a5b081859191c995cdcc81a5cc81c995c5d5a5c9959603a1b60448201526064015b60405180910390fd5b60008551116109f65760405162461bcd60e51b8152602060048201526016602482015275119a5c9cdd081b985b59481a5cc81c995c5d5a5c995960521b60448201526064016109a3565b6000845111610a3f5760405162461bcd60e51b815260206004820152601560248201527413185cdd081b985b59481a5cc81c995c5d5a5c9959605a1b60448201526064016109a3565b6000835111610a865760405162461bcd60e51b815260206004820152601360248201527210dbdb9d1858dd081a5cc81c995c5d5a5c9959606a1b60448201526064016109a3565b6000825111610ad75760405162461bcd60e51b815260206004820152601f60248201527f5265736964656e7469616c20616464726573732069732072657175697265640060448201526064016109a3565b6000815111610b215760405162461bcd60e51b815260206004820152601660248201527511da185b984818d85c99081a5cc81c995c5d5a5c995960521b60448201526064016109a3565b60018054604080516101408101825282815233602082019081529181018a8152606082018a90526080820189905260a0820188905260c0820187905260e0820186905260006101008301819052610120830181905284860186559490945280517fb10e2d527612073b26eecdfd717e6a320cf44b4afac2b0732d9fcbe2b7fa0cf6600a850290810191825592517fb10e2d527612073b26eecdfd717e6a320cf44b4afac2b0732d9fcbe2b7fa0cf7840180546001600160a01b0319166001600160a01b0390921691909117905593519293909290917fb10e2d527612073b26eecdfd717e6a320cf44b4afac2b0732d9fcbe2b7fa0cf80190610c239082615cab565b5060608201516003820190610c389082615cab565b5060808201516004820190610c4d9082615cab565b5060a08201516005820190610c629082615cab565b5060c08201516006820190610c779082615cab565b5060e08201516007820190610c8c9082615cab565b506101008201516008820155610120909101516009909101805460ff1916911515919091179055600081815260046020526040908190208054336001600160a01b0319909116811790915590517f6932ac5f42401e77c40344f612fa5558d62470f6a92606e938a4743c566e6ce891610d06918490615d6a565b60405180910390a150505050505050565b6001546060906000906001600160401b03811115610d3757610d37615664565b604051908082528060200260200182016040528015610d7057816020015b610d5d6153ce565b815260200190600190039081610d555790505b5090506000805b6001548110156111de5760018181548110610d9457610d94615bde565b6000918252602082206009600a90920201015460ff16151590036111cc5760018181548110610dc557610dc5615bde565b90600052602060002090600a020160405180610140016040529081600082015481526020016001820160009054906101000a90046001600160a01b03166001600160a01b03166001600160a01b03168152602001600282018054610e2890615bf4565b80601f0160208091040260200160405190810160405280929190818152602001828054610e5490615bf4565b8015610ea15780601f10610e7657610100808354040283529160200191610ea1565b820191906000526020600020905b815481529060010190602001808311610e8457829003601f168201915b50505050508152602001600382018054610eba90615bf4565b80601f0160208091040260200160405190810160405280929190818152602001828054610ee690615bf4565b8015610f335780601f10610f0857610100808354040283529160200191610f33565b820191906000526020600020905b815481529060010190602001808311610f1657829003601f168201915b50505050508152602001600482018054610f4c90615bf4565b80601f0160208091040260200160405190810160405280929190818152602001828054610f7890615bf4565b8015610fc55780601f10610f9a57610100808354040283529160200191610fc5565b820191906000526020600020905b815481529060010190602001808311610fa857829003601f168201915b50505050508152602001600582018054610fde90615bf4565b80601f016020809104026020016040519081016040528092919081815260200182805461100a90615bf4565b80156110575780601f1061102c57610100808354040283529160200191611057565b820191906000526020600020905b81548152906001019060200180831161103a57829003601f168201915b5050505050815260200160068201805461107090615bf4565b80601f016020809104026020016040519081016040528092919081815260200182805461109c90615bf4565b80156110e95780601f106110be576101008083540402835291602001916110e9565b820191906000526020600020905b8154815290600101906020018083116110cc57829003601f168201915b5050505050815260200160078201805461110290615bf4565b80601f016020809104026020016040519081016040528092919081815260200182805461112e90615bf4565b801561117b5780601f106111505761010080835404028352916020019161117b565b820191906000526020600020905b81548152906001019060200180831161115e57829003601f168201915b50505091835250506008820154602082015260099091015460ff16151560409091015283518490849081106111b2576111b2615bde565b602002602001018190525081806111c890615c44565b9250505b806111d681615c44565b915050610d77565b506000816001600160401b038111156111f9576111f9615664565b60405190808252806020026020018201604052801561123257816020015b61121f6153ce565b8152602001906001900390816112175790505b50905060005b828110156109525783818151811061125257611252615bde565b602002602001015182828151811061126c5761126c615bde565b6020026020010181905250808061128290615c44565b915050611238565b60008181526006602052604090205481906001600160a01b031633146112c25760405162461bcd60e51b81526004016109a390615d83565b6001600083815481106112d7576112d7615bde565b90600052602060002090600a020160090160016101000a81548160ff0219169083151502179055505050565b60008054606091906001600160401b0381111561132257611322615664565b60405190808252806020026020018201604052801561135b57816020015b61134861542c565b8152602001906001900390816113405790505b5090506000805b60005481101561175b576000818152600660205260409020546001600160a01b0316331480156113b95750600081815481106113a0576113a0615bde565b600091825260209091206009600a90920201015460ff16155b1561174957600081815481106113d1576113d1615bde565b90600052602060002090600a0201604051806101600160405290816000820154815260200160018201805461140590615bf4565b80601f016020809104026020016040519081016040528092919081815260200182805461143190615bf4565b801561147e5780601f106114535761010080835404028352916020019161147e565b820191906000526020600020905b81548152906001019060200180831161146157829003601f168201915b5050505050815260200160028201805461149790615bf4565b80601f01602080910402602001604051908101604052809291908181526020018280546114c390615bf4565b80156115105780601f106114e557610100808354040283529160200191611510565b820191906000526020600020905b8154815290600101906020018083116114f357829003601f168201915b5050505050815260200160038201805461152990615bf4565b80601f016020809104026020016040519081016040528092919081815260200182805461155590615bf4565b80156115a25780601f10611577576101008083540402835291602001916115a2565b820191906000526020600020905b81548152906001019060200180831161158557829003601f168201915b505050918352505060048201546001600160a01b03166020820152600582015460408201526006820180546060909201916115dc90615bf4565b80601f016020809104026020016040519081016040528092919081815260200182805461160890615bf4565b80156116555780601f1061162a57610100808354040283529160200191611655565b820191906000526020600020905b81548152906001019060200180831161163857829003601f168201915b505050505081526020016007820154815260200160088201805461167890615bf4565b80601f01602080910402602001604051908101604052809291908181526020018280546116a490615bf4565b80156116f15780601f106116c6576101008083540402835291602001916116f1565b820191906000526020600020905b8154815290600101906020018083116116d457829003601f168201915b50505091835250506009919091015460ff80821615156020840152610100909104161515604090910152835184908490811061172f5761172f615bde565b6020026020010181905250818061174590615c44565b9250505b8061175381615c44565b915050611362565b506000816001600160401b0381111561177657611776615664565b6040519080825280602002602001820160405280156117af57816020015b61179c61542c565b8152602001906001900390816117945790505b50905060005b82811015610952578381815181106117cf576117cf615bde565b60200260200101518282815181106117e9576117e9615bde565b602002602001018190525080806117ff90615c44565b9150506117b5565b6000805b60025481101561186f57336001600160a01b03166002828154811061183257611832615bde565b60009182526020909120600160069092020101546001600160a01b03160361185d576001915061186f565b8061186781615c44565b91505061180b565b506001811515146118925760405162461bcd60e51b81526004016109a390615db8565b60015482106118da5760405162461bcd60e51b81526020600482015260146024820152732ab9b2b9103237b2b9903737ba1032bc34b9ba1760611b60448201526064016109a3565b600182815481106118ed576118ed615bde565b600091825260209091206009600a90920201015460ff16156119515760405162461bcd60e51b815260206004820152601f60248201527f557365722068617320616c7265616479206265656e2076657269666965642e0060448201526064016109a3565b600180838154811061196557611965615bde565b600091825260208220600a9190910201600901805460ff1916921515929092179091555b600254811015611a1f57336001600160a01b0316600282815481106119b0576119b0615bde565b60009182526020909120600160069092020101546001600160a01b031603611a0d57600281815481106119e5576119e5615bde565b600091825260208220600460069092020101805491611a0383615c44565b9190505550505050565b80611a1781615c44565b915050611989565b505050565b60008054606091906001600160401b03811115611a4357611a43615664565b604051908082528060200260200182016040528015611a7c57816020015b611a6961542c565b815260200190600190039081611a615790505b5090506000805b600054811015611e80576000818152600660205260409020546001600160a01b031633148015611ade575060008181548110611ac157611ac1615bde565b600091825260209091206009600a90920201015460ff1615156001145b15611e6e5760008181548110611af657611af6615bde565b90600052602060002090600a02016040518061016001604052908160008201548152602001600182018054611b2a90615bf4565b80601f0160208091040260200160405190810160405280929190818152602001828054611b5690615bf4565b8015611ba35780601f10611b7857610100808354040283529160200191611ba3565b820191906000526020600020905b815481529060010190602001808311611b8657829003601f168201915b50505050508152602001600282018054611bbc90615bf4565b80601f0160208091040260200160405190810160405280929190818152602001828054611be890615bf4565b8015611c355780601f10611c0a57610100808354040283529160200191611c35565b820191906000526020600020905b815481529060010190602001808311611c1857829003601f168201915b50505050508152602001600382018054611c4e90615bf4565b80601f0160208091040260200160405190810160405280929190818152602001828054611c7a90615bf4565b8015611cc75780601f10611c9c57610100808354040283529160200191611cc7565b820191906000526020600020905b815481529060010190602001808311611caa57829003601f168201915b505050918352505060048201546001600160a01b0316602082015260058201546040820152600682018054606090920191611d0190615bf4565b80601f0160208091040260200160405190810160405280929190818152602001828054611d2d90615bf4565b8015611d7a5780601f10611d4f57610100808354040283529160200191611d7a565b820191906000526020600020905b815481529060010190602001808311611d5d57829003601f168201915b5050505050815260200160078201548152602001600882018054611d9d90615bf4565b80601f0160208091040260200160405190810160405280929190818152602001828054611dc990615bf4565b8015611e165780601f10611deb57610100808354040283529160200191611e16565b820191906000526020600020905b815481529060010190602001808311611df957829003601f168201915b50505091835250506009919091015460ff808216151560208401526101009091041615156040909101528351849084908110611e5457611e54615bde565b60200260200101819052508180611e6a90615c44565b9250505b80611e7881615c44565b915050611a83565b506000816001600160401b03811115611e9b57611e9b615664565b604051908082528060200260200182016040528015611ed457816020015b611ec161542c565b815260200190600190039081611eb95790505b50905060005b8281101561095257838181518110611ef457611ef4615bde565b6020026020010151828281518110611f0e57611f0e615bde565b60200260200101819052508080611f2490615c44565b915050611eda565b60008054606091906001600160401b03811115611f4b57611f4b615664565b604051908082528060200260200182016040528015611f8457816020015b611f7161542c565b815260200190600190039081611f695790505b50905060008084604051602001611f9b9190615def565b6040516020818303038152906040528051906020012090506000611fbe86615274565b9050600081604051602001611fd39190615def565b60405160208183030381529060405280519060200120905060005b60005481101561291c57600080828154811061200c5761200c615bde565b90600052602060002090600a020160010160405161202a9190615e0b565b60405180910390209050600080838154811061204857612048615bde565b90600052602060002090600a02016002016040516120669190615e0b565b604051809103902090508582148061207d57508581145b80156120b057506000838154811061209757612097615bde565b600091825260209091206009600a90920201015460ff16155b1561244457600083815481106120c8576120c8615bde565b90600052602060002090600a020160405180610160016040529081600082015481526020016001820180546120fc90615bf4565b80601f016020809104026020016040519081016040528092919081815260200182805461212890615bf4565b80156121755780601f1061214a57610100808354040283529160200191612175565b820191906000526020600020905b81548152906001019060200180831161215857829003601f168201915b5050505050815260200160028201805461218e90615bf4565b80601f01602080910402602001604051908101604052809291908181526020018280546121ba90615bf4565b80156122075780601f106121dc57610100808354040283529160200191612207565b820191906000526020600020905b8154815290600101906020018083116121ea57829003601f168201915b5050505050815260200160038201805461222090615bf4565b80601f016020809104026020016040519081016040528092919081815260200182805461224c90615bf4565b80156122995780601f1061226e57610100808354040283529160200191612299565b820191906000526020600020905b81548152906001019060200180831161227c57829003601f168201915b505050918352505060048201546001600160a01b03166020820152600582015460408201526006820180546060909201916122d390615bf4565b80601f01602080910402602001604051908101604052809291908181526020018280546122ff90615bf4565b801561234c5780601f106123215761010080835404028352916020019161234c565b820191906000526020600020905b81548152906001019060200180831161232f57829003601f168201915b505050505081526020016007820154815260200160088201805461236f90615bf4565b80601f016020809104026020016040519081016040528092919081815260200182805461239b90615bf4565b80156123e85780601f106123bd576101008083540402835291602001916123e8565b820191906000526020600020905b8154815290600101906020018083116123cb57829003601f168201915b50505091835250506009919091015460ff80821615156020840152610100909104161515604090910152885189908990811061242657612426615bde565b6020026020010181905250868061243c90615c44565b975050612907565b836124fa6000858154811061245b5761245b615bde565b90600052602060002090600a0201600101805461247790615bf4565b80601f01602080910402602001604051908101604052809291908181526020018280546124a390615bf4565b80156124f05780601f106124c5576101008083540402835291602001916124f0565b820191906000526020600020905b8154815290600101906020018083116124d357829003601f168201915b5050505050615274565b80519060200120148061254457508361253b6000858154811061251f5761251f615bde565b90600052602060002090600a0201600201805461247790615bf4565b80519060200120145b801561257757506000838154811061255e5761255e615bde565b600091825260209091206009600a90920201015460ff16155b15612907576000838154811061258f5761258f615bde565b90600052602060002090600a020160405180610160016040529081600082015481526020016001820180546125c390615bf4565b80601f01602080910402602001604051908101604052809291908181526020018280546125ef90615bf4565b801561263c5780601f106126115761010080835404028352916020019161263c565b820191906000526020600020905b81548152906001019060200180831161261f57829003601f168201915b5050505050815260200160028201805461265590615bf4565b80601f016020809104026020016040519081016040528092919081815260200182805461268190615bf4565b80156126ce5780601f106126a3576101008083540402835291602001916126ce565b820191906000526020600020905b8154815290600101906020018083116126b157829003601f168201915b505050505081526020016003820180546126e790615bf4565b80601f016020809104026020016040519081016040528092919081815260200182805461271390615bf4565b80156127605780601f1061273557610100808354040283529160200191612760565b820191906000526020600020905b81548152906001019060200180831161274357829003601f168201915b505050918352505060048201546001600160a01b031660208201526005820154604082015260068201805460609092019161279a90615bf4565b80601f01602080910402602001604051908101604052809291908181526020018280546127c690615bf4565b80156128135780601f106127e857610100808354040283529160200191612813565b820191906000526020600020905b8154815290600101906020018083116127f657829003601f168201915b505050505081526020016007820154815260200160088201805461283690615bf4565b80601f016020809104026020016040519081016040528092919081815260200182805461286290615bf4565b80156128af5780601f10612884576101008083540402835291602001916128af565b820191906000526020600020905b81548152906001019060200180831161289257829003601f168201915b50505091835250506009919091015460ff8082161515602084015261010090910416151560409091015288518990899081106128ed576128ed615bde565b6020026020010181905250868061290390615c44565b9750505b5050808061291490615c44565b915050611fee565b506000846001600160401b0381111561293757612937615664565b60405190808252806020026020018201604052801561297057816020015b61295d61542c565b8152602001906001900390816129555790505b50905060005b858110156129c85786818151811061299057612990615bde565b60200260200101518282815181106129aa576129aa615bde565b602002602001018190525080806129c090615c44565b915050612976565b50979650505050505050565b60008054606091906001600160401b038111156129f3576129f3615664565b604051908082528060200260200182016040528015612a2c57816020015b612a1961542c565b815260200190600190039081612a115790505b5090506000805b600054811015612dda5760008181548110612a5057612a50615bde565b90600052602060002090600a02016040518061016001604052908160008201548152602001600182018054612a8490615bf4565b80601f0160208091040260200160405190810160405280929190818152602001828054612ab090615bf4565b8015612afd5780601f10612ad257610100808354040283529160200191612afd565b820191906000526020600020905b815481529060010190602001808311612ae057829003601f168201915b50505050508152602001600282018054612b1690615bf4565b80601f0160208091040260200160405190810160405280929190818152602001828054612b4290615bf4565b8015612b8f5780601f10612b6457610100808354040283529160200191612b8f565b820191906000526020600020905b815481529060010190602001808311612b7257829003601f168201915b50505050508152602001600382018054612ba890615bf4565b80601f0160208091040260200160405190810160405280929190818152602001828054612bd490615bf4565b8015612c215780601f10612bf657610100808354040283529160200191612c21565b820191906000526020600020905b815481529060010190602001808311612c0457829003601f168201915b505050918352505060048201546001600160a01b0316602082015260058201546040820152600682018054606090920191612c5b90615bf4565b80601f0160208091040260200160405190810160405280929190818152602001828054612c8790615bf4565b8015612cd45780601f10612ca957610100808354040283529160200191612cd4565b820191906000526020600020905b815481529060010190602001808311612cb757829003601f168201915b5050505050815260200160078201548152602001600882018054612cf790615bf4565b80601f0160208091040260200160405190810160405280929190818152602001828054612d2390615bf4565b8015612d705780601f10612d4557610100808354040283529160200191612d70565b820191906000526020600020905b815481529060010190602001808311612d5357829003601f168201915b50505091835250506009919091015460ff808216151560208401526101009091041615156040909101528351849084908110612dae57612dae615bde565b60200260200101819052508180612dc490615c44565b9250508080612dd290615c44565b915050612a33565b506000816001600160401b03811115612df557612df5615664565b604051908082528060200260200182016040528015612e2e57816020015b612e1b61542c565b815260200190600190039081612e135790505b50905060005b8281101561095257838181518110612e4e57612e4e615bde565b6020026020010151828281518110612e6857612e68615bde565b60200260200101819052508080612e7e90615c44565b915050612e34565b60008054606091906001600160401b03811115612ea557612ea5615664565b604051908082528060200260200182016040528015612ede57816020015b612ecb61542c565b815260200190600190039081612ec35790505b50905060008084604051602001612ef59190615def565b6040516020818303038152906040528051906020012090506000612f1886615274565b9050600081604051602001612f2d9190615def565b60405160208183030381529060405280519060200120905060005b600054811015613755576000808281548110612f6657612f66615bde565b90600052602060002090600a0201600101604051612f849190615e0b565b604051809103902090506000808381548110612fa257612fa2615bde565b90600052602060002090600a0201600201604051612fc09190615e0b565b6040518091039020905085821480612fd757508581145b1561336b5760008381548110612fef57612fef615bde565b90600052602060002090600a0201604051806101600160405290816000820154815260200160018201805461302390615bf4565b80601f016020809104026020016040519081016040528092919081815260200182805461304f90615bf4565b801561309c5780601f106130715761010080835404028352916020019161309c565b820191906000526020600020905b81548152906001019060200180831161307f57829003601f168201915b505050505081526020016002820180546130b590615bf4565b80601f01602080910402602001604051908101604052809291908181526020018280546130e190615bf4565b801561312e5780601f106131035761010080835404028352916020019161312e565b820191906000526020600020905b81548152906001019060200180831161311157829003601f168201915b5050505050815260200160038201805461314790615bf4565b80601f016020809104026020016040519081016040528092919081815260200182805461317390615bf4565b80156131c05780601f10613195576101008083540402835291602001916131c0565b820191906000526020600020905b8154815290600101906020018083116131a357829003601f168201915b505050918352505060048201546001600160a01b03166020820152600582015460408201526006820180546060909201916131fa90615bf4565b80601f016020809104026020016040519081016040528092919081815260200182805461322690615bf4565b80156132735780601f1061324857610100808354040283529160200191613273565b820191906000526020600020905b81548152906001019060200180831161325657829003601f168201915b505050505081526020016007820154815260200160088201805461329690615bf4565b80601f01602080910402602001604051908101604052809291908181526020018280546132c290615bf4565b801561330f5780601f106132e45761010080835404028352916020019161330f565b820191906000526020600020905b8154815290600101906020018083116132f257829003601f168201915b50505091835250506009919091015460ff80821615156020840152610100909104161515604090910152885189908990811061334d5761334d615bde565b6020026020010181905250868061336390615c44565b975050613740565b836133826000858154811061245b5761245b615bde565b8051906020012014806133b05750836133a76000858154811061251f5761251f615bde565b80519060200120145b1561374057600083815481106133c8576133c8615bde565b90600052602060002090600a020160405180610160016040529081600082015481526020016001820180546133fc90615bf4565b80601f016020809104026020016040519081016040528092919081815260200182805461342890615bf4565b80156134755780601f1061344a57610100808354040283529160200191613475565b820191906000526020600020905b81548152906001019060200180831161345857829003601f168201915b5050505050815260200160028201805461348e90615bf4565b80601f01602080910402602001604051908101604052809291908181526020018280546134ba90615bf4565b80156135075780601f106134dc57610100808354040283529160200191613507565b820191906000526020600020905b8154815290600101906020018083116134ea57829003601f168201915b5050505050815260200160038201805461352090615bf4565b80601f016020809104026020016040519081016040528092919081815260200182805461354c90615bf4565b80156135995780601f1061356e57610100808354040283529160200191613599565b820191906000526020600020905b81548152906001019060200180831161357c57829003601f168201915b505050918352505060048201546001600160a01b03166020820152600582015460408201526006820180546060909201916135d390615bf4565b80601f01602080910402602001604051908101604052809291908181526020018280546135ff90615bf4565b801561364c5780601f106136215761010080835404028352916020019161364c565b820191906000526020600020905b81548152906001019060200180831161362f57829003601f168201915b505050505081526020016007820154815260200160088201805461366f90615bf4565b80601f016020809104026020016040519081016040528092919081815260200182805461369b90615bf4565b80156136e85780601f106136bd576101008083540402835291602001916136e8565b820191906000526020600020905b8154815290600101906020018083116136cb57829003601f168201915b50505091835250506009919091015460ff80821615156020840152610100909104161515604090910152885189908990811061372657613726615bde565b6020026020010181905250868061373c90615c44565b9750505b5050808061374d90615c44565b915050612f48565b506000846001600160401b0381111561377057613770615664565b6040519080825280602002602001820160405280156137a957816020015b61379661542c565b81526020019060019003908161378e5790505b50905060005b858110156129c8578681815181106137c9576137c9615bde565b60200260200101518282815181106137e3576137e3615bde565b602002602001018190525080806137f990615c44565b9150506137af565b6000805481906001600160401b0381111561381e5761381e615664565b60405190808252806020026020018201604052801561385757816020015b61384461542c565b81526020019060019003908161383c5790505b5090506000805b600054811015613c5b576000818152600660205260409020546001600160a01b0316331480156138b957506000818154811061389c5761389c615bde565b600091825260209091206009600a90920201015460ff1615156001145b15613c4957600081815481106138d1576138d1615bde565b90600052602060002090600a0201604051806101600160405290816000820154815260200160018201805461390590615bf4565b80601f016020809104026020016040519081016040528092919081815260200182805461393190615bf4565b801561397e5780601f106139535761010080835404028352916020019161397e565b820191906000526020600020905b81548152906001019060200180831161396157829003601f168201915b5050505050815260200160028201805461399790615bf4565b80601f01602080910402602001604051908101604052809291908181526020018280546139c390615bf4565b8015613a105780601f106139e557610100808354040283529160200191613a10565b820191906000526020600020905b8154815290600101906020018083116139f357829003601f168201915b50505050508152602001600382018054613a2990615bf4565b80601f0160208091040260200160405190810160405280929190818152602001828054613a5590615bf4565b8015613aa25780601f10613a7757610100808354040283529160200191613aa2565b820191906000526020600020905b815481529060010190602001808311613a8557829003601f168201915b505050918352505060048201546001600160a01b0316602082015260058201546040820152600682018054606090920191613adc90615bf4565b80601f0160208091040260200160405190810160405280929190818152602001828054613b0890615bf4565b8015613b555780601f10613b2a57610100808354040283529160200191613b55565b820191906000526020600020905b815481529060010190602001808311613b3857829003601f168201915b5050505050815260200160078201548152602001600882018054613b7890615bf4565b80601f0160208091040260200160405190810160405280929190818152602001828054613ba490615bf4565b8015613bf15780601f10613bc657610100808354040283529160200191613bf1565b820191906000526020600020905b815481529060010190602001808311613bd457829003601f168201915b50505091835250506009919091015460ff808216151560208401526101009091041615156040909101528351849084908110613c2f57613c2f615bde565b60200260200101819052508180613c4590615c44565b9250505b80613c5381615c44565b91505061385e565b5092915050565b6000825111613c835760405162461bcd60e51b81526004016109a390615e81565b6000815111613ca45760405162461bcd60e51b81526004016109a390615eaf565b6001600160a01b038316613cf05760405162461bcd60e51b81526020600482015260136024820152721059191c995cdcc81a5cc81c995c5d5a5c9959606a1b60448201526064016109a3565b600280546040805160c0810182528281526001600160a01b03878116602083019081529282018781526060830187905260006080840181905260a084018190526001860187559590955281517f405787fa12a823e0f2b7631cc41b3ba8828b3321ca811111fa75cd3aa3bb5ace6006860290810191825593517f405787fa12a823e0f2b7631cc41b3ba8828b3321ca811111fa75cd3aa3bb5acf850180546001600160a01b031916919093161790915593519293909290917f405787fa12a823e0f2b7631cc41b3ba8828b3321ca811111fa75cd3aa3bb5ad00190613dd59082615cab565b5060608201516003820190613dea9082615cab565b506080820151600482015560a090910151600591820155600082815260209190915260409081902080546001600160a01b0319166001600160a01b038716179055517f993580a851bc562ca66b484e7243631fca0c01d0c120f284b2ed949928cb86f890613e5b9086908490615d6a565b60405180910390a150505050565b6002546060906000906001600160401b03811115613e8957613e89615664565b604051908082528060200260200182016040528015613ec257816020015b613eaf615493565b815260200190600190039081613ea75790505b5090506000805b6002548110156140ae5760028181548110613ee657613ee6615bde565b90600052602060002090600602016040518060c0016040529081600082015481526020016001820160009054906101000a90046001600160a01b03166001600160a01b03166001600160a01b03168152602001600282018054613f4890615bf4565b80601f0160208091040260200160405190810160405280929190818152602001828054613f7490615bf4565b8015613fc15780601f10613f9657610100808354040283529160200191613fc1565b820191906000526020600020905b815481529060010190602001808311613fa457829003601f168201915b50505050508152602001600382018054613fda90615bf4565b80601f016020809104026020016040519081016040528092919081815260200182805461400690615bf4565b80156140535780601f1061402857610100808354040283529160200191614053565b820191906000526020600020905b81548152906001019060200180831161403657829003601f168201915b505050505081526020016004820154815260200160058201548152505083838151811061408257614082615bde565b6020026020010181905250818061409890615c44565b92505080806140a690615c44565b915050613ec9565b506000816001600160401b038111156140c9576140c9615664565b60405190808252806020026020018201604052801561410257816020015b6140ef615493565b8152602001906001900390816140e75790505b50905060005b828110156109525783818151811061412257614122615bde565b602002602001015182828151811061413c5761413c615bde565b6020026020010181905250808061415290615c44565b915050614108565b60008181526006602052604090205481906001600160a01b031633146141925760405162461bcd60e51b81526004016109a390615d83565b60008083815481106112d7576112d7615bde565b60008751116141c75760405162461bcd60e51b81526004016109a390615eaf565b60008651116141e85760405162461bcd60e51b81526004016109a390615e81565b600085511161422d5760405162461bcd60e51b815260206004820152601160248201527014dd185d19481a5cc81c995c5d5a5c9959607a1b60448201526064016109a3565b600084511161427c5760405162461bcd60e51b815260206004820152601b60248201527a141c9bdc195c9d1e481b9d5b58995c881a5cc81c995c5d5a5c9959602a1b60448201526064016109a3565b600083116142eb5760405162461bcd60e51b815260206004820152603660248201527f4d61726b65742076616c756520697320726571756972656420616e64206d7573604482015275742062652067726561746572207468616e207a65726f60501b60648201526084016109a3565b600082116143525760405162461bcd60e51b815260206004820152602e60248201527f53697a6520697320726571756972656420616e64206d7573742062652067726560448201526d61746572207468616e207a65726f60901b60648201526084016109a3565b600081511161439f5760405162461bcd60e51b815260206004820152601960248201527813185b9908191bd8dd5b595b9d081a5cc81c995c5d5a5c9959603a1b60448201526064016109a3565b600080546040805161016081018252828152602081018b81529181018a90526060810189905233608082015260a0810187905260c0810188905260e081018690526101008101859052610120810184905261014081018490526001830184559280528251600a83027f290decd9548b62a8d60345a988386fc84ba6bc95484008f6362f93160ef3e5638101918255915192939290917f290decd9548b62a8d60345a988386fc84ba6bc95484008f6362f93160ef3e56401906144619082615cab565b50604082015160028201906144769082615cab565b506060820151600382019061448b9082615cab565b5060808201516004820180546001600160a01b0319166001600160a01b0390921691909117905560a0820151600582015560c082015160068201906144d09082615cab565b5060e0820151600782015561010082015160088201906144f09082615cab565b50610120820151600990910180546101409093015115156101000261ff00199215159290921661ffff19909316929092171790556000818152600660205260409081902080546001600160a01b0319163390811790915590517f801226a370c391001c59ff031a337bffc592c6b2ba466b0d5a6350ccdd14f6d791614576918490615d6a565b60405180910390a15050505050505050565b60008054606091906001600160401b038111156145a7576145a7615664565b6040519080825280602002602001820160405280156145e057816020015b6145cd61542c565b8152602001906001900390816145c55790505b5090506000805b6000548110156149bf576000818154811061460457614604615bde565b6000918252602082206009600a90920201015460ff16151590036149ad576000818154811061463557614635615bde565b90600052602060002090600a0201604051806101600160405290816000820154815260200160018201805461466990615bf4565b80601f016020809104026020016040519081016040528092919081815260200182805461469590615bf4565b80156146e25780601f106146b7576101008083540402835291602001916146e2565b820191906000526020600020905b8154815290600101906020018083116146c557829003601f168201915b505050505081526020016002820180546146fb90615bf4565b80601f016020809104026020016040519081016040528092919081815260200182805461472790615bf4565b80156147745780601f1061474957610100808354040283529160200191614774565b820191906000526020600020905b81548152906001019060200180831161475757829003601f168201915b5050505050815260200160038201805461478d90615bf4565b80601f01602080910402602001604051908101604052809291908181526020018280546147b990615bf4565b80156148065780601f106147db57610100808354040283529160200191614806565b820191906000526020600020905b8154815290600101906020018083116147e957829003601f168201915b505050918352505060048201546001600160a01b031660208201526005820154604082015260068201805460609092019161484090615bf4565b80601f016020809104026020016040519081016040528092919081815260200182805461486c90615bf4565b80156148b95780601f1061488e576101008083540402835291602001916148b9565b820191906000526020600020905b81548152906001019060200180831161489c57829003601f168201915b50505050508152602001600782015481526020016008820180546148dc90615bf4565b80601f016020809104026020016040519081016040528092919081815260200182805461490890615bf4565b80156149555780601f1061492a57610100808354040283529160200191614955565b820191906000526020600020905b81548152906001019060200180831161493857829003601f168201915b50505091835250506009919091015460ff80821615156020840152610100909104161515604090910152835184908490811061499357614993615bde565b602002602001018190525081806149a990615c44565b9250505b806149b781615c44565b9150506145e7565b506000816001600160401b038111156149da576149da615664565b604051908082528060200260200182016040528015614a1357816020015b614a0061542c565b8152602001906001900390816149f85790505b50905060005b8281101561095257838181518110614a3357614a33615bde565b6020026020010151828281518110614a4d57614a4d615bde565b60200260200101819052508080614a6390615c44565b915050614a19565b60008181548110614a7e57614a7e615bde565b600091825260209091206009600a90920201015460ff161515600114614ab65760405162461bcd60e51b81526004016109a390615ed9565b60008181548110614ac957614ac9615bde565b600091825260209091206009600a90920201015460ff610100909104161515600114614b2e5760405162461bcd60e51b81526020600482015260146024820152734c616e64206973206e6f7420666f722073616c6560601b60448201526064016109a3565b60003411614b9b5760405162461bcd60e51b815260206004820152603460248201527f496e73756666696369656e742066756e64732c20506c6561736520596f75207060448201527330bc9036b7b932903a3430b710181032ba3432b960611b60648201526084016109a3565b6000808281548110614baf57614baf615bde565b6000918252602082206004600a90920201015481546001600160a01b039091169250819084908110614be357614be3615bde565b6000918252602082206004600a9092020101546001600160a01b031691505b600154811015614c9c57826001600160a01b031660018281548110614c2957614c29615bde565b600091825260209091206001600a9092020101546001600160a01b031603614c8a576001808281548110614c5f57614c5f615bde565b90600052602060002090600a02016008016000828254614c7f9190615f0b565b90915550614c9c9050565b80614c9481615c44565b915050614c02565b506040516001600160a01b038216903480156108fc02916000818181858888f19350505050158015614cd2573d6000803e3d6000fd5b503360008481548110614ce757614ce7615bde565b600091825260208083206004600a909302019190910180546001600160a01b03949094166001600160a01b03199485161790558582526006905260408120805490921633179091558054819085908110614d4357614d43615bde565b90600052602060002090600a020160090160016101000a81548160ff021916908315150217905550505050565b6000805b600254811015614dd857336001600160a01b031660028281548110614d9b57614d9b615bde565b60009182526020909120600160069092020101546001600160a01b031603614dc65760019150614dd8565b80614dd081615c44565b915050614d74565b50600181151514614dfb5760405162461bcd60e51b81526004016109a390615db8565b6000548210614e435760405162461bcd60e51b81526020600482015260146024820152732630b732103237b2b9903737ba1032bc34b9ba1760611b60448201526064016109a3565b60008281548110614e5657614e56615bde565b600091825260209091206009600a90920201015460ff1615614eba5760405162461bcd60e51b815260206004820152601f60248201527f4c616e642068617320616c7265616479206265656e2076657269666965642e0060448201526064016109a3565b600160008381548110614ecf57614ecf615bde565b600091825260208220600a9190910201600901805460ff1916921515929092179091555b600254811015611a1f57336001600160a01b031660028281548110614f1a57614f1a615bde565b60009182526020909120600160069092020101546001600160a01b031603614f6d5760028181548110614f4f57614f4f615bde565b600091825260208220600560069092020101805491611a0383615c44565b80614f7781615c44565b915050614ef3565b60608060606000806000808781548110614f9b57614f9b615bde565b600091825260209091206009600a90920201015460ff161515600114614fd35760405162461bcd60e51b81526004016109a390615ed9565b60008781548110614fe657614fe6615bde565b90600052602060002090600a02016001016000888154811061500a5761500a615bde565b90600052602060002090600a02016002016000898154811061502e5761502e615bde565b90600052602060002090600a020160030160008a8154811061505257615052615bde565b90600052602060002090600a02016005015460008b8154811061507757615077615bde565b90600052602060002090600a02016007015460008c8154811061509c5761509c615bde565b90600052602060002090600a020160090160019054906101000a900460ff168580546150c790615bf4565b80601f01602080910402602001604051908101604052809291908181526020018280546150f390615bf4565b80156151405780601f1061511557610100808354040283529160200191615140565b820191906000526020600020905b81548152906001019060200180831161512357829003601f168201915b5050505050955084805461515390615bf4565b80601f016020809104026020016040519081016040528092919081815260200182805461517f90615bf4565b80156151cc5780601f106151a1576101008083540402835291602001916151cc565b820191906000526020600020905b8154815290600101906020018083116151af57829003601f168201915b505050505094508380546151df90615bf4565b80601f016020809104026020016040519081016040528092919081815260200182805461520b90615bf4565b80156152585780601f1061522d57610100808354040283529160200191615258565b820191906000526020600020905b81548152906001019060200180831161523b57829003601f168201915b5050505050935095509550955095509550955091939550919395565b60606000829050600081516001600160401b0381111561529657615296615664565b6040519080825280601f01601f1916602001820160405280156152c0576020820181803683370190505b50905060005b82518110156109525760418382815181106152e3576152e3615bde565b016020015160f81c108015906153135750605a83828151811061530857615308615bde565b016020015160f81c11155b156153755782818151811061532a5761532a615bde565b602001015160f81c60f81b60f81c60206153449190615f24565b60f81b82828151811061535957615359615bde565b60200101906001600160f81b031916908160001a9053506153bc565b82818151811061538757615387615bde565b602001015160f81c60f81b8282815181106153a4576153a4615bde565b60200101906001600160f81b031916908160001a9053505b806153c681615c44565b9150506152c6565b6040518061014001604052806000815260200160006001600160a01b03168152602001606081526020016060815260200160608152602001606081526020016060815260200160608152602001600081526020016000151581525090565b6040518061016001604052806000815260200160608152602001606081526020016060815260200160006001600160a01b03168152602001600081526020016060815260200160008152602001606081526020016000151581526020016000151581525090565b6040518060c001604052806000815260200160006001600160a01b03168152602001606081526020016060815260200160008152602001600081525090565b6001600160a01b03169052565b60005b838110156154fa5781810151838201526020016154e2565b50506000910152565b6000815180845261551b8160208601602086016154df565b601f01601f19169290920160200192915050565b60006020808301818452808551808352604092508286019150828160051b87010184880160005b8381101561565657603f19898403018552815161014081518552888201516155808a8701826154d2565b5087820151818987015261559682870182615503565b915050606080830151868303828801526155b08382615503565b92505050608080830151868303828801526155cb8382615503565b9250505060a080830151868303828801526155e68382615503565b9250505060c080830151868303828801526156018382615503565b9250505060e0808301518683038288015261561c8382615503565b925050506101008083015181870152506101208083015192506156428187018415159052565b509588019593505090860190600101615556565b509098975050505050505050565b634e487b7160e01b600052604160045260246000fd5b600082601f83011261568b57600080fd5b81356001600160401b03808211156156a5576156a5615664565b604051601f8301601f19908116603f011681019082821181831017156156cd576156cd615664565b816040528381528660208588010111156156e657600080fd5b836020870160208301376000602085830101528094505050505092915050565b60008060008060008060c0878903121561571f57600080fd5b86356001600160401b038082111561573657600080fd5b6157428a838b0161567a565b9750602089013591508082111561575857600080fd5b6157648a838b0161567a565b9650604089013591508082111561577a57600080fd5b6157868a838b0161567a565b9550606089013591508082111561579c57600080fd5b6157a88a838b0161567a565b945060808901359150808211156157be57600080fd5b6157ca8a838b0161567a565b935060a08901359150808211156157e057600080fd5b506157ed89828a0161567a565b9150509295509295509295565b60006020828403121561580c57600080fd5b5035919050565b60006020808301818452808551808352604092508286019150828160051b87010184880160005b8381101561565657603f1989840301855281516101608151855288820151818a87015261586982870182615503565b91505087820151858203898701526158818282615503565b9150506060808301518683038288015261589b8382615503565b925050506080808301516158b1828801826154d2565b505060a0828101519086015260c080830151868303828801526158d48382615503565b9250505060e080830151818701525061010080830151868303828801526158fb8382615503565b92505050610120808301516159138288018215159052565b50506101409182015115159490910193909352938601939086019060010161583a565b60006020828403121561594857600080fd5b81356001600160401b0381111561595e57600080fd5b61596a8482850161567a565b949350505050565b60008060006060848603121561598757600080fd5b83356001600160a01b038116811461599e57600080fd5b925060208401356001600160401b03808211156159ba57600080fd5b6159c68783880161567a565b935060408601359150808211156159dc57600080fd5b506159e98682870161567a565b9150509250925092565b60006020808301818452808551808352604092508286019150828160051b87010184880160005b8381101561565657888303603f19018552815180518452878101516001600160a01b0316888501528681015160c088860181905290615a5b82870182615503565b91505060608083015186830382880152615a758382615503565b6080858101519089015260a09485015194909701939093525050509386019390860190600101615a1a565b600080600080600080600060e0888a031215615abb57600080fd5b87356001600160401b0380821115615ad257600080fd5b615ade8b838c0161567a565b985060208a0135915080821115615af457600080fd5b615b008b838c0161567a565b975060408a0135915080821115615b1657600080fd5b615b228b838c0161567a565b965060608a0135915080821115615b3857600080fd5b615b448b838c0161567a565b955060808a0135945060a08a0135935060c08a0135915080821115615b6857600080fd5b50615b758a828b0161567a565b91505092959891949750929550565b60c081526000615b9760c0830189615503565b8281036020840152615ba98189615503565b90508281036040840152615bbd8188615503565b606084019690965250506080810192909252151560a0909101529392505050565b634e487b7160e01b600052603260045260246000fd5b600181811c90821680615c0857607f821691505b602082108103615c2857634e487b7160e01b600052602260045260246000fd5b50919050565b634e487b7160e01b600052601160045260246000fd5b600060018201615c5657615c56615c2e565b5060010190565b601f821115611a1f57600081815260208120601f850160051c81016020861015615c845750805b601f850160051c820191505b81811015615ca357828155600101615c90565b505050505050565b81516001600160401b03811115615cc457615cc4615664565b615cd881615cd28454615bf4565b84615c5d565b602080601f831160018114615d0d5760008415615cf55750858301515b600019600386901b1c1916600185901b178555615ca3565b600085815260208120601f198616915b82811015615d3c57888601518255948401946001909101908401615d1d565b5085821015615d5a5787850151600019600388901b60f8161c191681555b5050505050600190811b01905550565b6001600160a01b03929092168252602082015260400190565b6020808252601b908201527a2cb7ba9030b932903737ba103a3432903630b7321037bbb732b91760291b604082015260600190565b6020808252601d908201527f596f7520617265206e6f742061206c616e6420696e73706563746f722e000000604082015260600190565b60008251615e018184602087016154df565b9190910192915050565b6000808354615e1981615bf4565b60018281168015615e315760018114615e4657615e75565b60ff1984168752821515830287019450615e75565b8760005260208060002060005b85811015615e6c5781548a820152908401908201615e53565b50505082870194505b50929695505050505050565b602080825260149082015273111a5cdd1c9a58dd081a5cc81c995c5d5a5c995960621b604082015260600190565b60208082526010908201526f10da5d1e481a5cc81c995c5d5a5c995960821b604082015260600190565b60208082526018908201527713185b99081a5cc81b9bdd081e595d081d995c9a599a595960421b604082015260600190565b80820180821115615f1e57615f1e615c2e565b92915050565b60ff8181168382160190811115615f1e57615f1e615c2e56fea2646970667358221220cc94852368ea11b6a9038acb603bbada9cd743c275998c7356c76d46e280a7da64736f6c63430008110033",
  "linkReferences": {},
  "deployedLinkReferences": {}
}