{
  "_format": "hh-sol-artifact-1",
  "contractName": "LandRegistrationSystem",
  "sourceName": "contracts/LandRegistrationSystem.sol",
  "abi": [
    {
      "inputs": [],
      "stateMutability": "nonpayable",
      "type": "constructor"
    },
    {
      "anonymous": false,
      "inputs": [
        {
          "indexed": false,
          "internalType": "address",
          "name": "recipient",
          "type": "address"
        },
        {
          "indexed": false,
          "internalType": "uint256",
          "name": "taskId",
          "type": "uint256"
        }
      ],
      "name": "AddLand",
      "type": "event"
    },
    {
      "anonymous": false,
      "inputs": [
        {
          "indexed": false,
          "internalType": "address",
          "name": "recipient",
          "type": "address"
        },
        {
          "indexed": false,
          "internalType": "uint256",
          "name": "taskId",
          "type": "uint256"
        }
      ],
      "name": "AddUser",
      "type": "event"
    },
    {
      "anonymous": false,
      "inputs": [
        {
          "indexed": false,
          "internalType": "address",
          "name": "recipient",
          "type": "address"
        },
        {
          "indexed": false,
          "internalType": "uint256",
          "name": "taskId",
          "type": "uint256"
        }
      ],
      "name": "AddlandInspector",
      "type": "event"
    },
    {
      "anonymous": false,
      "inputs": [
        {
          "indexed": true,
          "internalType": "address",
          "name": "_seller",
          "type": "address"
        },
        {
          "indexed": true,
          "internalType": "address",
          "name": "_buyer",
          "type": "address"
        },
        {
          "indexed": false,
          "internalType": "uint256",
          "name": "_value",
          "type": "uint256"
        }
      ],
      "name": "LandSold",
      "type": "event"
    },
    {
      "inputs": [
        {
          "internalType": "uint256",
          "name": "landId",
          "type": "uint256"
        }
      ],
      "name": "buyLand",
      "outputs": [],
      "stateMutability": "payable",
      "type": "function"
    },
    {
      "inputs": [
        {
          "internalType": "uint256",
          "name": "landId",
          "type": "uint256"
        }
      ],
      "name": "cancelSale",
      "outputs": [],
      "stateMutability": "nonpayable",
      "type": "function"
    },
    {
      "inputs": [],
      "name": "countOwnerLands",
      "outputs": [
        {
          "internalType": "uint256",
          "name": "",
          "type": "uint256"
        }
      ],
      "stateMutability": "view",
      "type": "function"
    },
    {
      "inputs": [
        {
          "internalType": "string",
          "name": "_city",
          "type": "string"
        },
        {
          "internalType": "string",
          "name": "_district",
          "type": "string"
        },
        {
          "internalType": "string",
          "name": "_state",
          "type": "string"
        },
        {
          "internalType": "string",
          "name": "_propertyNumber",
          "type": "string"
        },
        {
          "internalType": "uint256",
          "name": "_marketValue",
          "type": "uint256"
        },
        {
          "internalType": "uint256",
          "name": "_size",
          "type": "uint256"
        },
        {
          "internalType": "string",
          "name": "_landDocument",
          "type": "string"
        }
      ],
      "name": "createLand",
      "outputs": [],
      "stateMutability": "nonpayable",
      "type": "function"
    },
    {
      "inputs": [
        {
          "internalType": "address",
          "name": "_walletAddress",
          "type": "address"
        },
        {
          "internalType": "string",
          "name": "_district",
          "type": "string"
        },
        {
          "internalType": "string",
          "name": "_city",
          "type": "string"
        }
      ],
      "name": "createLandInspector",
      "outputs": [],
      "stateMutability": "nonpayable",
      "type": "function"
    },
    {
      "inputs": [
        {
          "internalType": "string",
          "name": "_emailAddress",
          "type": "string"
        },
        {
          "internalType": "string",
          "name": "_firstName",
          "type": "string"
        },
        {
          "internalType": "string",
          "name": "_lastName",
          "type": "string"
        },
        {
          "internalType": "string",
          "name": "_contact",
          "type": "string"
        },
        {
          "internalType": "string",
          "name": "_residentialAddress",
          "type": "string"
        },
        {
          "internalType": "string",
          "name": "_ghanaCard",
          "type": "string"
        }
      ],
      "name": "createUser",
      "outputs": [],
      "stateMutability": "nonpayable",
      "type": "function"
    },
    {
      "inputs": [],
      "name": "getInspectors",
      "outputs": [
        {
          "components": [
            {
              "internalType": "uint256",
              "name": "inspectorId",
              "type": "uint256"
            },
            {
              "internalType": "address",
              "name": "walletAddress",
              "type": "address"
            },
            {
              "internalType": "string",
              "name": "district",
              "type": "string"
            },
            {
              "internalType": "string",
              "name": "city",
              "type": "string"
            },
            {
              "internalType": "uint256",
              "name": "verifiedUser",
              "type": "uint256"
            },
            {
              "internalType": "uint256",
              "name": "verifiedLand",
              "type": "uint256"
            }
          ],
          "internalType": "struct LandRegistrationSystem.LandInspector[]",
          "name": "",
          "type": "tuple[]"
        }
      ],
      "stateMutability": "view",
      "type": "function"
    },
    {
      "inputs": [
        {
          "internalType": "uint256",
          "name": "landId",
          "type": "uint256"
        }
      ],
      "name": "getLandDetails",
      "outputs": [
        {
          "internalType": "string",
          "name": "",
          "type": "string"
        },
        {
          "internalType": "string",
          "name": "",
          "type": "string"
        },
        {
          "internalType": "string",
          "name": "",
          "type": "string"
        },
        {
          "internalType": "uint256",
          "name": "",
          "type": "uint256"
        },
        {
          "internalType": "uint256",
          "name": "",
          "type": "uint256"
        },
        {
          "internalType": "bool",
          "name": "",
          "type": "bool"
        }
      ],
      "stateMutability": "view",
      "type": "function"
    },
    {
      "inputs": [],
      "name": "getLands",
      "outputs": [
        {
          "components": [
            {
              "internalType": "uint256",
              "name": "landId",
              "type": "uint256"
            },
            {
              "internalType": "string",
              "name": "city",
              "type": "string"
            },
            {
              "internalType": "string",
              "name": "district",
              "type": "string"
            },
            {
              "internalType": "string",
              "name": "state",
              "type": "string"
            },
            {
              "internalType": "address",
              "name": "owner",
              "type": "address"
            },
            {
              "internalType": "uint256",
              "name": "marketValue",
              "type": "uint256"
            },
            {
              "internalType": "uint256",
              "name": "size",
              "type": "uint256"
            },
            {
              "internalType": "string",
              "name": "landDocument",
              "type": "string"
            },
            {
              "internalType": "bool",
              "name": "verified",
              "type": "bool"
            },
            {
              "internalType": "bool",
              "name": "forSell",
              "type": "bool"
            }
          ],
          "internalType": "struct LandRegistrationSystem.Land[]",
          "name": "",
          "type": "tuple[]"
        }
      ],
      "stateMutability": "view",
      "type": "function"
    },
    {
      "inputs": [],
      "name": "getNonVerifiedLands",
      "outputs": [
        {
          "components": [
            {
              "internalType": "uint256",
              "name": "landId",
              "type": "uint256"
            },
            {
              "internalType": "string",
              "name": "city",
              "type": "string"
            },
            {
              "internalType": "string",
              "name": "district",
              "type": "string"
            },
            {
              "internalType": "string",
              "name": "state",
              "type": "string"
            },
            {
              "internalType": "address",
              "name": "owner",
              "type": "address"
            },
            {
              "internalType": "uint256",
              "name": "marketValue",
              "type": "uint256"
            },
            {
              "internalType": "uint256",
              "name": "size",
              "type": "uint256"
            },
            {
              "internalType": "string",
              "name": "landDocument",
              "type": "string"
            },
            {
              "internalType": "bool",
              "name": "verified",
              "type": "bool"
            },
            {
              "internalType": "bool",
              "name": "forSell",
              "type": "bool"
            }
          ],
          "internalType": "struct LandRegistrationSystem.Land[]",
          "name": "",
          "type": "tuple[]"
        }
      ],
      "stateMutability": "view",
      "type": "function"
    },
    {
      "inputs": [],
      "name": "getNonVerifiedUsers",
      "outputs": [
        {
          "components": [
            {
              "internalType": "uint256",
              "name": "userId",
              "type": "uint256"
            },
            {
              "internalType": "address",
              "name": "walletAddress",
              "type": "address"
            },
            {
              "internalType": "string",
              "name": "emailAddress",
              "type": "string"
            },
            {
              "internalType": "string",
              "name": "firstName",
              "type": "string"
            },
            {
              "internalType": "string",
              "name": "lastName",
              "type": "string"
            },
            {
              "internalType": "string",
              "name": "contact",
              "type": "string"
            },
            {
              "internalType": "string",
              "name": "residentialAddress",
              "type": "string"
            },
            {
              "internalType": "string",
              "name": "ghanaCard",
              "type": "string"
            },
            {
              "internalType": "uint256",
              "name": "landSold",
              "type": "uint256"
            },
            {
              "internalType": "bool",
              "name": "verified",
              "type": "bool"
            }
          ],
          "internalType": "struct LandRegistrationSystem.User[]",
          "name": "",
          "type": "tuple[]"
        }
      ],
      "stateMutability": "view",
      "type": "function"
    },
    {
      "inputs": [],
      "name": "getOwnerLands",
      "outputs": [
        {
          "components": [
            {
              "internalType": "uint256",
              "name": "landId",
              "type": "uint256"
            },
            {
              "internalType": "string",
              "name": "city",
              "type": "string"
            },
            {
              "internalType": "string",
              "name": "district",
              "type": "string"
            },
            {
              "internalType": "string",
              "name": "state",
              "type": "string"
            },
            {
              "internalType": "address",
              "name": "owner",
              "type": "address"
            },
            {
              "internalType": "uint256",
              "name": "marketValue",
              "type": "uint256"
            },
            {
              "internalType": "uint256",
              "name": "size",
              "type": "uint256"
            },
            {
              "internalType": "string",
              "name": "landDocument",
              "type": "string"
            },
            {
              "internalType": "bool",
              "name": "verified",
              "type": "bool"
            },
            {
              "internalType": "bool",
              "name": "forSell",
              "type": "bool"
            }
          ],
          "internalType": "struct LandRegistrationSystem.Land[]",
          "name": "",
          "type": "tuple[]"
        }
      ],
      "stateMutability": "view",
      "type": "function"
    },
    {
      "inputs": [],
      "name": "getUsers",
      "outputs": [
        {
          "components": [
            {
              "internalType": "uint256",
              "name": "userId",
              "type": "uint256"
            },
            {
              "internalType": "address",
              "name": "walletAddress",
              "type": "address"
            },
            {
              "internalType": "string",
              "name": "emailAddress",
              "type": "string"
            },
            {
              "internalType": "string",
              "name": "firstName",
              "type": "string"
            },
            {
              "internalType": "string",
              "name": "lastName",
              "type": "string"
            },
            {
              "internalType": "string",
              "name": "contact",
              "type": "string"
            },
            {
              "internalType": "string",
              "name": "residentialAddress",
              "type": "string"
            },
            {
              "internalType": "string",
              "name": "ghanaCard",
              "type": "string"
            },
            {
              "internalType": "uint256",
              "name": "landSold",
              "type": "uint256"
            },
            {
              "internalType": "bool",
              "name": "verified",
              "type": "bool"
            }
          ],
          "internalType": "struct LandRegistrationSystem.User[]",
          "name": "",
          "type": "tuple[]"
        }
      ],
      "stateMutability": "view",
      "type": "function"
    },
    {
      "inputs": [
        {
          "internalType": "uint256",
          "name": "",
          "type": "uint256"
        }
      ],
      "name": "landInspectors",
      "outputs": [
        {
          "internalType": "address",
          "name": "",
          "type": "address"
        }
      ],
      "stateMutability": "view",
      "type": "function"
    },
    {
      "inputs": [
        {
          "internalType": "uint256",
          "name": "",
          "type": "uint256"
        }
      ],
      "name": "lands",
      "outputs": [
        {
          "internalType": "address",
          "name": "",
          "type": "address"
        }
      ],
      "stateMutability": "view",
      "type": "function"
    },
    {
      "inputs": [
        {
          "internalType": "string",
          "name": "_keyword",
          "type": "string"
        }
      ],
      "name": "searchLands",
      "outputs": [
        {
          "components": [
            {
              "internalType": "uint256",
              "name": "landId",
              "type": "uint256"
            },
            {
              "internalType": "string",
              "name": "city",
              "type": "string"
            },
            {
              "internalType": "string",
              "name": "district",
              "type": "string"
            },
            {
              "internalType": "string",
              "name": "state",
              "type": "string"
            },
            {
              "internalType": "address",
              "name": "owner",
              "type": "address"
            },
            {
              "internalType": "uint256",
              "name": "marketValue",
              "type": "uint256"
            },
            {
              "internalType": "uint256",
              "name": "size",
              "type": "uint256"
            },
            {
              "internalType": "string",
              "name": "landDocument",
              "type": "string"
            },
            {
              "internalType": "bool",
              "name": "verified",
              "type": "bool"
            },
            {
              "internalType": "bool",
              "name": "forSell",
              "type": "bool"
            }
          ],
          "internalType": "struct LandRegistrationSystem.Land[]",
          "name": "",
          "type": "tuple[]"
        }
      ],
      "stateMutability": "view",
      "type": "function"
    },
    {
      "inputs": [
        {
          "internalType": "string",
          "name": "_keyword",
          "type": "string"
        }
      ],
      "name": "searchLandsforInspector",
      "outputs": [
        {
          "components": [
            {
              "internalType": "uint256",
              "name": "landId",
              "type": "uint256"
            },
            {
              "internalType": "string",
              "name": "city",
              "type": "string"
            },
            {
              "internalType": "string",
              "name": "district",
              "type": "string"
            },
            {
              "internalType": "string",
              "name": "state",
              "type": "string"
            },
            {
              "internalType": "address",
              "name": "owner",
              "type": "address"
            },
            {
              "internalType": "uint256",
              "name": "marketValue",
              "type": "uint256"
            },
            {
              "internalType": "uint256",
              "name": "size",
              "type": "uint256"
            },
            {
              "internalType": "string",
              "name": "landDocument",
              "type": "string"
            },
            {
              "internalType": "bool",
              "name": "verified",
              "type": "bool"
            },
            {
              "internalType": "bool",
              "name": "forSell",
              "type": "bool"
            }
          ],
          "internalType": "struct LandRegistrationSystem.Land[]",
          "name": "",
          "type": "tuple[]"
        }
      ],
      "stateMutability": "view",
      "type": "function"
    },
    {
      "inputs": [
        {
          "internalType": "uint256",
          "name": "landId",
          "type": "uint256"
        }
      ],
      "name": "setLandForSale",
      "outputs": [],
      "stateMutability": "nonpayable",
      "type": "function"
    },
    {
      "inputs": [],
      "name": "unverifiedOwnerLands",
      "outputs": [
        {
          "components": [
            {
              "internalType": "uint256",
              "name": "landId",
              "type": "uint256"
            },
            {
              "internalType": "string",
              "name": "city",
              "type": "string"
            },
            {
              "internalType": "string",
              "name": "district",
              "type": "string"
            },
            {
              "internalType": "string",
              "name": "state",
              "type": "string"
            },
            {
              "internalType": "address",
              "name": "owner",
              "type": "address"
            },
            {
              "internalType": "uint256",
              "name": "marketValue",
              "type": "uint256"
            },
            {
              "internalType": "uint256",
              "name": "size",
              "type": "uint256"
            },
            {
              "internalType": "string",
              "name": "landDocument",
              "type": "string"
            },
            {
              "internalType": "bool",
              "name": "verified",
              "type": "bool"
            },
            {
              "internalType": "bool",
              "name": "forSell",
              "type": "bool"
            }
          ],
          "internalType": "struct LandRegistrationSystem.Land[]",
          "name": "",
          "type": "tuple[]"
        }
      ],
      "stateMutability": "view",
      "type": "function"
    },
    {
      "inputs": [
        {
          "internalType": "uint256",
          "name": "",
          "type": "uint256"
        }
      ],
      "name": "users",
      "outputs": [
        {
          "internalType": "address",
          "name": "",
          "type": "address"
        }
      ],
      "stateMutability": "view",
      "type": "function"
    },
    {
      "inputs": [
        {
          "internalType": "uint256",
          "name": "inspectorId",
          "type": "uint256"
        },
        {
          "internalType": "uint256",
          "name": "landId",
          "type": "uint256"
        }
      ],
      "name": "verifyLand",
      "outputs": [],
      "stateMutability": "nonpayable",
      "type": "function"
    },
    {
      "inputs": [
        {
          "internalType": "uint256",
          "name": "inspectorId",
          "type": "uint256"
        },
        {
          "internalType": "uint256",
          "name": "userId",
          "type": "uint256"
        }
      ],
      "name": "verifyUser",
      "outputs": [],
      "stateMutability": "nonpayable",
      "type": "function"
    }
  ],
  "bytecode": "0x608060405234801561001057600080fd5b50600380546001600160a01b03191633179055615cde80620000336000396000f3fe6080604052600436106101745760003560e01c80637ac4ba36116100cb578063bd94b0051161007f578063ced3955811610059578063ced3955814610405578063e261f1e514610418578063fe0cb7dc1461044e57600080fd5b8063bd94b005146103b0578063c0ee11de146103d0578063c133c42b146103f057600080fd5b8063807d61f5116100b0578063807d61f51461034e5780638e6b8ed31461036e5780639de494951461039057600080fd5b80637ac4ba361461030b5780637f2898501461032b57600080fd5b8063365b98b21161012d5780635d7a1158116101075780635d7a1158146102b65780636ee30afe146102d65780636fe0c906146102f657600080fd5b8063365b98b2146102495780633a75cdfe1461027f57806354447329146102a157600080fd5b80630638d0071161015e5780630638d007146101c657806314636ae31461021457806329bb8bdb1461022957600080fd5b8062ce8e3e1461017957806301dadb2b146101a4575b600080fd5b34801561018557600080fd5b5061018e610480565b60405161019b91906153a8565b60405180910390f35b3480156101b057600080fd5b506101c46101bf366004615582565b610a7e565b005b3480156101d257600080fd5b506101fc6101e1366004615677565b6005602052600090815260409020546001600160a01b031681565b6040516001600160a01b03909116815260200161019b565b34801561022057600080fd5b5061018e610e60565b34801561023557600080fd5b506101c4610244366004615677565b611487565b34801561025557600080fd5b506101fc610264366004615677565b6004602052600090815260409020546001600160a01b031681565b34801561028b57600080fd5b50610294611530565b60405161019b9190615690565b3480156102ad57600080fd5b50610294611a5a565b3480156102c257600080fd5b506101c46102d136600461579e565b611f88565b3480156102e257600080fd5b506102946102f13660046157c0565b611fff565b34801561030257600080fd5b50610294612a3b565b34801561031757600080fd5b506102946103263660046157c0565b612f13565b34801561033757600080fd5b50610340613822565b60405190815260200161019b565b34801561035a57600080fd5b506101c46103693660046157fd565b613c4d565b34801561037a57600080fd5b50610383613ebe565b60405161019b919061587f565b34801561039c57600080fd5b506101c46103ab36600461579e565b614225565b3480156103bc57600080fd5b506101c46103cb366004615677565b614292565b3480156103dc57600080fd5b506101c46103eb36600461592a565b61430e565b3480156103fc57600080fd5b5061029461475c565b6101c4610413366004615677565b614c65565b34801561042457600080fd5b506101fc610433366004615677565b6006602052600090815260409020546001600160a01b031681565b34801561045a57600080fd5b5061046e610469366004615677565b614ea8565b60405161019b96959493929190615a0f565b60015460609060009067ffffffffffffffff8111156104a1576104a16154df565b60405190808252806020026020018201604052801561053357816020015b6105206040518061014001604052806000815260200160006001600160a01b03168152602001606081526020016060815260200160608152602001606081526020016060815260200160608152602001600081526020016000151581525090565b8152602001906001900390816104bf5790505b5090506000805b600154811015610970576001818154811061055757610557615a69565b90600052602060002090600a020160405180610140016040529081600082015481526020016001820160009054906101000a90046001600160a01b03166001600160a01b03166001600160a01b031681526020016002820180546105ba90615a7f565b80601f01602080910402602001604051908101604052809291908181526020018280546105e690615a7f565b80156106335780601f1061060857610100808354040283529160200191610633565b820191906000526020600020905b81548152906001019060200180831161061657829003601f168201915b5050505050815260200160038201805461064c90615a7f565b80601f016020809104026020016040519081016040528092919081815260200182805461067890615a7f565b80156106c55780601f1061069a576101008083540402835291602001916106c5565b820191906000526020600020905b8154815290600101906020018083116106a857829003601f168201915b505050505081526020016004820180546106de90615a7f565b80601f016020809104026020016040519081016040528092919081815260200182805461070a90615a7f565b80156107575780601f1061072c57610100808354040283529160200191610757565b820191906000526020600020905b81548152906001019060200180831161073a57829003601f168201915b5050505050815260200160058201805461077090615a7f565b80601f016020809104026020016040519081016040528092919081815260200182805461079c90615a7f565b80156107e95780601f106107be576101008083540402835291602001916107e9565b820191906000526020600020905b8154815290600101906020018083116107cc57829003601f168201915b5050505050815260200160068201805461080290615a7f565b80601f016020809104026020016040519081016040528092919081815260200182805461082e90615a7f565b801561087b5780601f106108505761010080835404028352916020019161087b565b820191906000526020600020905b81548152906001019060200180831161085e57829003601f168201915b5050505050815260200160078201805461089490615a7f565b80601f01602080910402602001604051908101604052809291908181526020018280546108c090615a7f565b801561090d5780601f106108e25761010080835404028352916020019161090d565b820191906000526020600020905b8154815290600101906020018083116108f057829003601f168201915b50505091835250506008820154602082015260099091015460ff161515604090910152835184908490811061094457610944615a69565b6020026020010181905250818061095a90615acf565b925050808061096890615acf565b91505061053a565b5060008167ffffffffffffffff81111561098c5761098c6154df565b604051908082528060200260200182016040528015610a1e57816020015b610a0b6040518061014001604052806000815260200160006001600160a01b03168152602001606081526020016060815260200160608152602001606081526020016060815260200160608152602001600081526020016000151581525090565b8152602001906001900390816109aa5790505b50905060005b82811015610a7657838181518110610a3e57610a3e615a69565b6020026020010151828281518110610a5857610a58615a69565b60200260200101819052508080610a6e90615acf565b915050610a24565b509392505050565b6000865111610ad45760405162461bcd60e51b815260206004820152601960248201527f456d61696c20616464726573732069732072657175697265640000000000000060448201526064015b60405180910390fd5b6000855111610b255760405162461bcd60e51b815260206004820152601660248201527f4669727374206e616d65206973207265717569726564000000000000000000006044820152606401610acb565b6000845111610b765760405162461bcd60e51b815260206004820152601560248201527f4c617374206e616d6520697320726571756972656400000000000000000000006044820152606401610acb565b6000835111610bc75760405162461bcd60e51b815260206004820152601360248201527f436f6e74616374206973207265717569726564000000000000000000000000006044820152606401610acb565b6000825111610c185760405162461bcd60e51b815260206004820152601f60248201527f5265736964656e7469616c2061646472657373206973207265717569726564006044820152606401610acb565b6000815111610c695760405162461bcd60e51b815260206004820152601660248201527f4768616e612063617264206973207265717569726564000000000000000000006044820152606401610acb565b60018054604080516101408101825282815233602082019081529181018a8152606082018a90526080820189905260a0820188905260c0820187905260e0820186905260006101008301819052610120830181905284860186559490945280517fb10e2d527612073b26eecdfd717e6a320cf44b4afac2b0732d9fcbe2b7fa0cf6600a850290810191825592517fb10e2d527612073b26eecdfd717e6a320cf44b4afac2b0732d9fcbe2b7fa0cf7840180546001600160a01b0319166001600160a01b0390921691909117905593519293909290917fb10e2d527612073b26eecdfd717e6a320cf44b4afac2b0732d9fcbe2b7fa0cf80190610d6b9082615b37565b5060608201516003820190610d809082615b37565b5060808201516004820190610d959082615b37565b5060a08201516005820190610daa9082615b37565b5060c08201516006820190610dbf9082615b37565b5060e08201516007820190610dd49082615b37565b506101008201516008820155610120909101516009909101805460ff19169115159190911790556000818152600460209081526040918290208054336001600160a01b0319909116811790915582519081529081018390527f6932ac5f42401e77c40344f612fa5558d62470f6a92606e938a4743c566e6ce8910160405180910390a150505050505050565b60015460609060009067ffffffffffffffff811115610e8157610e816154df565b604051908082528060200260200182016040528015610f1357816020015b610f006040518061014001604052806000815260200160006001600160a01b03168152602001606081526020016060815260200160608152602001606081526020016060815260200160608152602001600081526020016000151581525090565b815260200190600190039081610e9f5790505b5090506000805b6001548110156113815760018181548110610f3757610f37615a69565b6000918252602082206009600a90920201015460ff161515900361136f5760018181548110610f6857610f68615a69565b90600052602060002090600a020160405180610140016040529081600082015481526020016001820160009054906101000a90046001600160a01b03166001600160a01b03166001600160a01b03168152602001600282018054610fcb90615a7f565b80601f0160208091040260200160405190810160405280929190818152602001828054610ff790615a7f565b80156110445780601f1061101957610100808354040283529160200191611044565b820191906000526020600020905b81548152906001019060200180831161102757829003601f168201915b5050505050815260200160038201805461105d90615a7f565b80601f016020809104026020016040519081016040528092919081815260200182805461108990615a7f565b80156110d65780601f106110ab576101008083540402835291602001916110d6565b820191906000526020600020905b8154815290600101906020018083116110b957829003601f168201915b505050505081526020016004820180546110ef90615a7f565b80601f016020809104026020016040519081016040528092919081815260200182805461111b90615a7f565b80156111685780601f1061113d57610100808354040283529160200191611168565b820191906000526020600020905b81548152906001019060200180831161114b57829003601f168201915b5050505050815260200160058201805461118190615a7f565b80601f01602080910402602001604051908101604052809291908181526020018280546111ad90615a7f565b80156111fa5780601f106111cf576101008083540402835291602001916111fa565b820191906000526020600020905b8154815290600101906020018083116111dd57829003601f168201915b5050505050815260200160068201805461121390615a7f565b80601f016020809104026020016040519081016040528092919081815260200182805461123f90615a7f565b801561128c5780601f106112615761010080835404028352916020019161128c565b820191906000526020600020905b81548152906001019060200180831161126f57829003601f168201915b505050505081526020016007820180546112a590615a7f565b80601f01602080910402602001604051908101604052809291908181526020018280546112d190615a7f565b801561131e5780601f106112f35761010080835404028352916020019161131e565b820191906000526020600020905b81548152906001019060200180831161130157829003601f168201915b50505091835250506008820154602082015260099091015460ff161515604090910152835184908490811061135557611355615a69565b6020026020010181905250818061136b90615acf565b9250505b8061137981615acf565b915050610f1a565b5060008167ffffffffffffffff81111561139d5761139d6154df565b60405190808252806020026020018201604052801561142f57816020015b61141c6040518061014001604052806000815260200160006001600160a01b03168152602001606081526020016060815260200160608152602001606081526020016060815260200160608152602001600081526020016000151581525090565b8152602001906001900390816113bb5790505b50905060005b82811015610a765783818151811061144f5761144f615a69565b602002602001015182828151811061146957611469615a69565b6020026020010181905250808061147f90615acf565b915050611435565b60008181526006602052604090205481906001600160a01b031633146114ef5760405162461bcd60e51b815260206004820152601b60248201527f596f7520617265206e6f7420746865206c616e64206f776e65722e00000000006044820152606401610acb565b60016000838154811061150457611504615a69565b906000526020600020906009020160080160016101000a81548160ff0219169083151502179055505050565b600080546060919067ffffffffffffffff811115611550576115506154df565b6040519080825280602002602001820160405280156115e457816020015b6115d16040518061014001604052806000815260200160608152602001606081526020016060815260200160006001600160a01b031681526020016000815260200160008152602001606081526020016000151581526020016000151581525090565b81526020019060019003908161156e5790505b5090506000805b600054811015611952576000818152600660205260409020546001600160a01b03163314801561164257506000818154811061162957611629615a69565b600091825260209091206008600990920201015460ff16155b15611940576000818154811061165a5761165a615a69565b9060005260206000209060090201604051806101400160405290816000820154815260200160018201805461168e90615a7f565b80601f01602080910402602001604051908101604052809291908181526020018280546116ba90615a7f565b80156117075780601f106116dc57610100808354040283529160200191611707565b820191906000526020600020905b8154815290600101906020018083116116ea57829003601f168201915b5050505050815260200160028201805461172090615a7f565b80601f016020809104026020016040519081016040528092919081815260200182805461174c90615a7f565b80156117995780601f1061176e57610100808354040283529160200191611799565b820191906000526020600020905b81548152906001019060200180831161177c57829003601f168201915b505050505081526020016003820180546117b290615a7f565b80601f01602080910402602001604051908101604052809291908181526020018280546117de90615a7f565b801561182b5780601f106118005761010080835404028352916020019161182b565b820191906000526020600020905b81548152906001019060200180831161180e57829003601f168201915b505050918352505060048201546001600160a01b03166020820152600582015460408201526006820154606082015260078201805460809092019161186f90615a7f565b80601f016020809104026020016040519081016040528092919081815260200182805461189b90615a7f565b80156118e85780601f106118bd576101008083540402835291602001916118e8565b820191906000526020600020905b8154815290600101906020018083116118cb57829003601f168201915b50505091835250506008919091015460ff80821615156020840152610100909104161515604090910152835184908490811061192657611926615a69565b6020026020010181905250818061193c90615acf565b9250505b8061194a81615acf565b9150506115eb565b5060008167ffffffffffffffff81111561196e5761196e6154df565b604051908082528060200260200182016040528015611a0257816020015b6119ef6040518061014001604052806000815260200160608152602001606081526020016060815260200160006001600160a01b031681526020016000815260200160008152602001606081526020016000151581526020016000151581525090565b81526020019060019003908161198c5790505b50905060005b82811015610a7657838181518110611a2257611a22615a69565b6020026020010151828281518110611a3c57611a3c615a69565b60200260200101819052508080611a5290615acf565b915050611a08565b600080546060919067ffffffffffffffff811115611a7a57611a7a6154df565b604051908082528060200260200182016040528015611b0e57816020015b611afb6040518061014001604052806000815260200160608152602001606081526020016060815260200160006001600160a01b031681526020016000815260200160008152602001606081526020016000151581526020016000151581525090565b815260200190600190039081611a985790505b5090506000805b600054811015611e80576000818152600660205260409020546001600160a01b031633148015611b70575060008181548110611b5357611b53615a69565b600091825260209091206008600990920201015460ff1615156001145b15611e6e5760008181548110611b8857611b88615a69565b90600052602060002090600902016040518061014001604052908160008201548152602001600182018054611bbc90615a7f565b80601f0160208091040260200160405190810160405280929190818152602001828054611be890615a7f565b8015611c355780601f10611c0a57610100808354040283529160200191611c35565b820191906000526020600020905b815481529060010190602001808311611c1857829003601f168201915b50505050508152602001600282018054611c4e90615a7f565b80601f0160208091040260200160405190810160405280929190818152602001828054611c7a90615a7f565b8015611cc75780601f10611c9c57610100808354040283529160200191611cc7565b820191906000526020600020905b815481529060010190602001808311611caa57829003601f168201915b50505050508152602001600382018054611ce090615a7f565b80601f0160208091040260200160405190810160405280929190818152602001828054611d0c90615a7f565b8015611d595780601f10611d2e57610100808354040283529160200191611d59565b820191906000526020600020905b815481529060010190602001808311611d3c57829003601f168201915b505050918352505060048201546001600160a01b031660208201526005820154604082015260068201546060820152600782018054608090920191611d9d90615a7f565b80601f0160208091040260200160405190810160405280929190818152602001828054611dc990615a7f565b8015611e165780601f10611deb57610100808354040283529160200191611e16565b820191906000526020600020905b815481529060010190602001808311611df957829003601f168201915b50505091835250506008919091015460ff808216151560208401526101009091041615156040909101528351849084908110611e5457611e54615a69565b60200260200101819052508180611e6a90615acf565b9250505b80611e7881615acf565b915050611b15565b5060008167ffffffffffffffff811115611e9c57611e9c6154df565b604051908082528060200260200182016040528015611f3057816020015b611f1d6040518061014001604052806000815260200160608152602001606081526020016060815260200160006001600160a01b031681526020016000815260200160008152602001606081526020016000151581526020016000151581525090565b815260200190600190039081611eba5790505b50905060005b82811015610a7657838181518110611f5057611f50615a69565b6020026020010151828281518110611f6a57611f6a615a69565b60200260200101819052508080611f8090615acf565b915050611f36565b600160008281548110611f9d57611f9d615a69565b906000526020600020906009020160080160006101000a81548160ff02191690831515021790555060028281548110611fd857611fd8615a69565b600091825260208220600560069092020101805491611ff683615acf565b91905055505050565b600080546060919067ffffffffffffffff81111561201f5761201f6154df565b6040519080825280602002602001820160405280156120b357816020015b6120a06040518061014001604052806000815260200160608152602001606081526020016060815260200160006001600160a01b031681526020016000815260200160008152602001606081526020016000151581526020016000151581525090565b81526020019060019003908161203d5790505b509050600080846040516020016120ca9190615bf7565b60405160208183030381529060405280519060200120905060006120ed866151cd565b90506000816040516020016121029190615bf7565b60405160208183030381529060405280519060200120905060005b60005481101561292757600080828154811061213b5761213b615a69565b90600052602060002090600902016001016040516121599190615c13565b60405180910390209050600080838154811061217757612177615a69565b90600052602060002090600902016002016040516121959190615c13565b60405180910390209050858214806121ac57508581145b80156121df5750600083815481106121c6576121c6615a69565b600091825260209091206008600990920201015460ff16155b156124e157600083815481106121f7576121f7615a69565b9060005260206000209060090201604051806101400160405290816000820154815260200160018201805461222b90615a7f565b80601f016020809104026020016040519081016040528092919081815260200182805461225790615a7f565b80156122a45780601f10612279576101008083540402835291602001916122a4565b820191906000526020600020905b81548152906001019060200180831161228757829003601f168201915b505050505081526020016002820180546122bd90615a7f565b80601f01602080910402602001604051908101604052809291908181526020018280546122e990615a7f565b80156123365780601f1061230b57610100808354040283529160200191612336565b820191906000526020600020905b81548152906001019060200180831161231957829003601f168201915b5050505050815260200160038201805461234f90615a7f565b80601f016020809104026020016040519081016040528092919081815260200182805461237b90615a7f565b80156123c85780601f1061239d576101008083540402835291602001916123c8565b820191906000526020600020905b8154815290600101906020018083116123ab57829003601f168201915b505050918352505060048201546001600160a01b03166020820152600582015460408201526006820154606082015260078201805460809092019161240c90615a7f565b80601f016020809104026020016040519081016040528092919081815260200182805461243890615a7f565b80156124855780601f1061245a57610100808354040283529160200191612485565b820191906000526020600020905b81548152906001019060200180831161246857829003601f168201915b50505091835250506008919091015460ff8082161515602084015261010090910416151560409091015288518990899081106124c3576124c3615a69565b602002602001018190525086806124d990615acf565b975050612912565b83612597600085815481106124f8576124f8615a69565b9060005260206000209060090201600101805461251490615a7f565b80601f016020809104026020016040519081016040528092919081815260200182805461254090615a7f565b801561258d5780601f106125625761010080835404028352916020019161258d565b820191906000526020600020905b81548152906001019060200180831161257057829003601f168201915b50505050506151cd565b8051906020012014806125e15750836125d8600085815481106125bc576125bc615a69565b9060005260206000209060090201600201805461251490615a7f565b80519060200120145b80156126145750600083815481106125fb576125fb615a69565b600091825260209091206008600990920201015460ff16155b15612912576000838154811061262c5761262c615a69565b9060005260206000209060090201604051806101400160405290816000820154815260200160018201805461266090615a7f565b80601f016020809104026020016040519081016040528092919081815260200182805461268c90615a7f565b80156126d95780601f106126ae576101008083540402835291602001916126d9565b820191906000526020600020905b8154815290600101906020018083116126bc57829003601f168201915b505050505081526020016002820180546126f290615a7f565b80601f016020809104026020016040519081016040528092919081815260200182805461271e90615a7f565b801561276b5780601f106127405761010080835404028352916020019161276b565b820191906000526020600020905b81548152906001019060200180831161274e57829003601f168201915b5050505050815260200160038201805461278490615a7f565b80601f01602080910402602001604051908101604052809291908181526020018280546127b090615a7f565b80156127fd5780601f106127d2576101008083540402835291602001916127fd565b820191906000526020600020905b8154815290600101906020018083116127e057829003601f168201915b505050918352505060048201546001600160a01b03166020820152600582015460408201526006820154606082015260078201805460809092019161284190615a7f565b80601f016020809104026020016040519081016040528092919081815260200182805461286d90615a7f565b80156128ba5780601f1061288f576101008083540402835291602001916128ba565b820191906000526020600020905b81548152906001019060200180831161289d57829003601f168201915b50505091835250506008919091015460ff8082161515602084015261010090910416151560409091015288518990899081106128f8576128f8615a69565b6020026020010181905250868061290e90615acf565b9750505b5050808061291f90615acf565b91505061211d565b5060008467ffffffffffffffff811115612943576129436154df565b6040519080825280602002602001820160405280156129d757816020015b6129c46040518061014001604052806000815260200160608152602001606081526020016060815260200160006001600160a01b031681526020016000815260200160008152602001606081526020016000151581526020016000151581525090565b8152602001906001900390816129615790505b50905060005b85811015612a2f578681815181106129f7576129f7615a69565b6020026020010151828281518110612a1157612a11615a69565b60200260200101819052508080612a2790615acf565b9150506129dd565b50979650505050505050565b600080546060919067ffffffffffffffff811115612a5b57612a5b6154df565b604051908082528060200260200182016040528015612aef57816020015b612adc6040518061014001604052806000815260200160608152602001606081526020016060815260200160006001600160a01b031681526020016000815260200160008152602001606081526020016000151581526020016000151581525090565b815260200190600190039081612a795790505b5090506000805b600054811015612e0b5760008181548110612b1357612b13615a69565b90600052602060002090600902016040518061014001604052908160008201548152602001600182018054612b4790615a7f565b80601f0160208091040260200160405190810160405280929190818152602001828054612b7390615a7f565b8015612bc05780601f10612b9557610100808354040283529160200191612bc0565b820191906000526020600020905b815481529060010190602001808311612ba357829003601f168201915b50505050508152602001600282018054612bd990615a7f565b80601f0160208091040260200160405190810160405280929190818152602001828054612c0590615a7f565b8015612c525780601f10612c2757610100808354040283529160200191612c52565b820191906000526020600020905b815481529060010190602001808311612c3557829003601f168201915b50505050508152602001600382018054612c6b90615a7f565b80601f0160208091040260200160405190810160405280929190818152602001828054612c9790615a7f565b8015612ce45780601f10612cb957610100808354040283529160200191612ce4565b820191906000526020600020905b815481529060010190602001808311612cc757829003601f168201915b505050918352505060048201546001600160a01b031660208201526005820154604082015260068201546060820152600782018054608090920191612d2890615a7f565b80601f0160208091040260200160405190810160405280929190818152602001828054612d5490615a7f565b8015612da15780601f10612d7657610100808354040283529160200191612da1565b820191906000526020600020905b815481529060010190602001808311612d8457829003601f168201915b50505091835250506008919091015460ff808216151560208401526101009091041615156040909101528351849084908110612ddf57612ddf615a69565b60200260200101819052508180612df590615acf565b9250508080612e0390615acf565b915050612af6565b5060008167ffffffffffffffff811115612e2757612e276154df565b604051908082528060200260200182016040528015612ebb57816020015b612ea86040518061014001604052806000815260200160608152602001606081526020016060815260200160006001600160a01b031681526020016000815260200160008152602001606081526020016000151581526020016000151581525090565b815260200190600190039081612e455790505b50905060005b82811015610a7657838181518110612edb57612edb615a69565b6020026020010151828281518110612ef557612ef5615a69565b60200260200101819052508080612f0b90615acf565b915050612ec1565b600080546060919067ffffffffffffffff811115612f3357612f336154df565b604051908082528060200260200182016040528015612fc757816020015b612fb46040518061014001604052806000815260200160608152602001606081526020016060815260200160006001600160a01b031681526020016000815260200160008152602001606081526020016000151581526020016000151581525090565b815260200190600190039081612f515790505b50905060008084604051602001612fde9190615bf7565b6040516020818303038152906040528051906020012090506000613001866151cd565b90506000816040516020016130169190615bf7565b60405160208183030381529060405280519060200120905060005b60005481101561371a57600080828154811061304f5761304f615a69565b906000526020600020906009020160010160405161306d9190615c13565b60405180910390209050600080838154811061308b5761308b615a69565b90600052602060002090600902016002016040516130a99190615c13565b60405180910390209050858214806130c057508581145b156133c257600083815481106130d8576130d8615a69565b9060005260206000209060090201604051806101400160405290816000820154815260200160018201805461310c90615a7f565b80601f016020809104026020016040519081016040528092919081815260200182805461313890615a7f565b80156131855780601f1061315a57610100808354040283529160200191613185565b820191906000526020600020905b81548152906001019060200180831161316857829003601f168201915b5050505050815260200160028201805461319e90615a7f565b80601f01602080910402602001604051908101604052809291908181526020018280546131ca90615a7f565b80156132175780601f106131ec57610100808354040283529160200191613217565b820191906000526020600020905b8154815290600101906020018083116131fa57829003601f168201915b5050505050815260200160038201805461323090615a7f565b80601f016020809104026020016040519081016040528092919081815260200182805461325c90615a7f565b80156132a95780601f1061327e576101008083540402835291602001916132a9565b820191906000526020600020905b81548152906001019060200180831161328c57829003601f168201915b505050918352505060048201546001600160a01b0316602082015260058201546040820152600682015460608201526007820180546080909201916132ed90615a7f565b80601f016020809104026020016040519081016040528092919081815260200182805461331990615a7f565b80156133665780601f1061333b57610100808354040283529160200191613366565b820191906000526020600020905b81548152906001019060200180831161334957829003601f168201915b50505091835250506008919091015460ff8082161515602084015261010090910416151560409091015288518990899081106133a4576133a4615a69565b602002602001018190525086806133ba90615acf565b975050613705565b836133d9600085815481106124f8576124f8615a69565b8051906020012014806134075750836133fe600085815481106125bc576125bc615a69565b80519060200120145b15613705576000838154811061341f5761341f615a69565b9060005260206000209060090201604051806101400160405290816000820154815260200160018201805461345390615a7f565b80601f016020809104026020016040519081016040528092919081815260200182805461347f90615a7f565b80156134cc5780601f106134a1576101008083540402835291602001916134cc565b820191906000526020600020905b8154815290600101906020018083116134af57829003601f168201915b505050505081526020016002820180546134e590615a7f565b80601f016020809104026020016040519081016040528092919081815260200182805461351190615a7f565b801561355e5780601f106135335761010080835404028352916020019161355e565b820191906000526020600020905b81548152906001019060200180831161354157829003601f168201915b5050505050815260200160038201805461357790615a7f565b80601f01602080910402602001604051908101604052809291908181526020018280546135a390615a7f565b80156135f05780601f106135c5576101008083540402835291602001916135f0565b820191906000526020600020905b8154815290600101906020018083116135d357829003601f168201915b505050918352505060048201546001600160a01b03166020820152600582015460408201526006820154606082015260078201805460809092019161363490615a7f565b80601f016020809104026020016040519081016040528092919081815260200182805461366090615a7f565b80156136ad5780601f10613682576101008083540402835291602001916136ad565b820191906000526020600020905b81548152906001019060200180831161369057829003601f168201915b50505091835250506008919091015460ff8082161515602084015261010090910416151560409091015288518990899081106136eb576136eb615a69565b6020026020010181905250868061370190615acf565b9750505b5050808061371290615acf565b915050613031565b5060008467ffffffffffffffff811115613736576137366154df565b6040519080825280602002602001820160405280156137ca57816020015b6137b76040518061014001604052806000815260200160608152602001606081526020016060815260200160006001600160a01b031681526020016000815260200160008152602001606081526020016000151581526020016000151581525090565b8152602001906001900390816137545790505b50905060005b85811015612a2f578681815181106137ea576137ea615a69565b602002602001015182828151811061380457613804615a69565b6020026020010181905250808061381a90615acf565b9150506137d0565b60008054819067ffffffffffffffff811115613840576138406154df565b6040519080825280602002602001820160405280156138d457816020015b6138c16040518061014001604052806000815260200160608152602001606081526020016060815260200160006001600160a01b031681526020016000815260200160008152602001606081526020016000151581526020016000151581525090565b81526020019060019003908161385e5790505b5090506000805b600054811015613c46576000818152600660205260409020546001600160a01b03163314801561393657506000818154811061391957613919615a69565b600091825260209091206008600990920201015460ff1615156001145b15613c34576000818154811061394e5761394e615a69565b9060005260206000209060090201604051806101400160405290816000820154815260200160018201805461398290615a7f565b80601f01602080910402602001604051908101604052809291908181526020018280546139ae90615a7f565b80156139fb5780601f106139d0576101008083540402835291602001916139fb565b820191906000526020600020905b8154815290600101906020018083116139de57829003601f168201915b50505050508152602001600282018054613a1490615a7f565b80601f0160208091040260200160405190810160405280929190818152602001828054613a4090615a7f565b8015613a8d5780601f10613a6257610100808354040283529160200191613a8d565b820191906000526020600020905b815481529060010190602001808311613a7057829003601f168201915b50505050508152602001600382018054613aa690615a7f565b80601f0160208091040260200160405190810160405280929190818152602001828054613ad290615a7f565b8015613b1f5780601f10613af457610100808354040283529160200191613b1f565b820191906000526020600020905b815481529060010190602001808311613b0257829003601f168201915b505050918352505060048201546001600160a01b031660208201526005820154604082015260068201546060820152600782018054608090920191613b6390615a7f565b80601f0160208091040260200160405190810160405280929190818152602001828054613b8f90615a7f565b8015613bdc5780601f10613bb157610100808354040283529160200191613bdc565b820191906000526020600020905b815481529060010190602001808311613bbf57829003601f168201915b50505091835250506008919091015460ff808216151560208401526101009091041615156040909101528351849084908110613c1a57613c1a615a69565b60200260200101819052508180613c3090615acf565b9250505b80613c3e81615acf565b9150506138db565b5092915050565b6000825111613c9e5760405162461bcd60e51b815260206004820152601460248201527f44697374726963742069732072657175697265640000000000000000000000006044820152606401610acb565b6000815111613cef5760405162461bcd60e51b815260206004820152601060248201527f43697479206973207265717569726564000000000000000000000000000000006044820152606401610acb565b6001600160a01b038316613d455760405162461bcd60e51b815260206004820152601360248201527f41646472657373206973207265717569726564000000000000000000000000006044820152606401610acb565b600280546040805160c0810182528281526001600160a01b03878116602083019081529282018781526060830187905260006080840181905260a084018190526001860187559590955281517f405787fa12a823e0f2b7631cc41b3ba8828b3321ca811111fa75cd3aa3bb5ace6006860290810191825593517f405787fa12a823e0f2b7631cc41b3ba8828b3321ca811111fa75cd3aa3bb5acf850180546001600160a01b031916919093161790915593519293909290917f405787fa12a823e0f2b7631cc41b3ba8828b3321ca811111fa75cd3aa3bb5ad00190613e2a9082615b37565b5060608201516003820190613e3f9082615b37565b506080820151600482015560a0909101516005918201556000828152602091825260409081902080546001600160a01b0319166001600160a01b03881690811790915581519081529182018390527f993580a851bc562ca66b484e7243631fca0c01d0c120f284b2ed949928cb86f8910160405180910390a150505050565b60025460609060009067ffffffffffffffff811115613edf57613edf6154df565b604051908082528060200260200182016040528015613f5257816020015b613f3f6040518060c001604052806000815260200160006001600160a01b03168152602001606081526020016060815260200160008152602001600081525090565b815260200190600190039081613efd5790505b5090506000805b60025481101561413e5760028181548110613f7657613f76615a69565b90600052602060002090600602016040518060c0016040529081600082015481526020016001820160009054906101000a90046001600160a01b03166001600160a01b03166001600160a01b03168152602001600282018054613fd890615a7f565b80601f016020809104026020016040519081016040528092919081815260200182805461400490615a7f565b80156140515780601f1061402657610100808354040283529160200191614051565b820191906000526020600020905b81548152906001019060200180831161403457829003601f168201915b5050505050815260200160038201805461406a90615a7f565b80601f016020809104026020016040519081016040528092919081815260200182805461409690615a7f565b80156140e35780601f106140b8576101008083540402835291602001916140e3565b820191906000526020600020905b8154815290600101906020018083116140c657829003601f168201915b505050505081526020016004820154815260200160058201548152505083838151811061411257614112615a69565b6020026020010181905250818061412890615acf565b925050808061413690615acf565b915050613f59565b5060008167ffffffffffffffff81111561415a5761415a6154df565b6040519080825280602002602001820160405280156141cd57816020015b6141ba6040518060c001604052806000815260200160006001600160a01b03168152602001606081526020016060815260200160008152602001600081525090565b8152602001906001900390816141785790505b50905060005b82811015610a76578381815181106141ed576141ed615a69565b602002602001015182828151811061420757614207615a69565b6020026020010181905250808061421d90615acf565b9150506141d3565b600180828154811061423957614239615a69565b90600052602060002090600a020160090160006101000a81548160ff0219169083151502179055506002828154811061427457614274615a69565b600091825260208220600460069092020101805491611ff683615acf565b60008181526006602052604090205481906001600160a01b031633146142fa5760405162461bcd60e51b815260206004820152601b60248201527f596f7520617265206e6f7420746865206c616e64206f776e65722e00000000006044820152606401610acb565b600080838154811061150457611504615a69565b600087511161435f5760405162461bcd60e51b815260206004820152601060248201527f43697479206973207265717569726564000000000000000000000000000000006044820152606401610acb565b60008651116143b05760405162461bcd60e51b815260206004820152601460248201527f44697374726963742069732072657175697265640000000000000000000000006044820152606401610acb565b60008551116144015760405162461bcd60e51b815260206004820152601160248201527f53746174652069732072657175697265640000000000000000000000000000006044820152606401610acb565b60008451116144525760405162461bcd60e51b815260206004820152601b60248201527f50726f7065727479206e756d62657220697320726571756972656400000000006044820152606401610acb565b600083116144c85760405162461bcd60e51b815260206004820152603660248201527f4d61726b65742076616c756520697320726571756972656420616e64206d757360448201527f742062652067726561746572207468616e207a65726f000000000000000000006064820152608401610acb565b6000821161453e5760405162461bcd60e51b815260206004820152602e60248201527f53697a6520697320726571756972656420616e64206d7573742062652067726560448201527f61746572207468616e207a65726f0000000000000000000000000000000000006064820152608401610acb565b600081511161458f5760405162461bcd60e51b815260206004820152601960248201527f4c616e6420646f63756d656e74206973207265717569726564000000000000006044820152606401610acb565b600080546040805161014081018252828152602081018b81529181018a90526060810189905233608082015260a0810187905260c0810186905260e08101859052610100810184905261012081018490526001830184559280528251600983027f290decd9548b62a8d60345a988386fc84ba6bc95484008f6362f93160ef3e5638101918255915192939290917f290decd9548b62a8d60345a988386fc84ba6bc95484008f6362f93160ef3e56401906146499082615b37565b506040820151600282019061465e9082615b37565b50606082015160038201906146739082615b37565b5060808201516004820180546001600160a01b0319166001600160a01b0390921691909117905560a0820151600582015560c0820151600682015560e082015160078201906146c29082615b37565b506101008281015160089290920180546101209094015161ffff1990941692151561ff00191692909217921515029190911790556000818152600660209081526040918290208054336001600160a01b0319909116811790915582519081529081018390527f801226a370c391001c59ff031a337bffc592c6b2ba466b0d5a6350ccdd14f6d7910160405180910390a15050505050505050565b600080546060919067ffffffffffffffff81111561477c5761477c6154df565b60405190808252806020026020018201604052801561481057816020015b6147fd6040518061014001604052806000815260200160608152602001606081526020016060815260200160006001600160a01b031681526020016000815260200160008152602001606081526020016000151581526020016000151581525090565b81526020019060019003908161479a5790505b5090506000805b600054811015614b5d576000818154811061483457614834615a69565b6000918252602082206008600990920201015460ff1615159003614b4b576000818154811061486557614865615a69565b9060005260206000209060090201604051806101400160405290816000820154815260200160018201805461489990615a7f565b80601f01602080910402602001604051908101604052809291908181526020018280546148c590615a7f565b80156149125780601f106148e757610100808354040283529160200191614912565b820191906000526020600020905b8154815290600101906020018083116148f557829003601f168201915b5050505050815260200160028201805461492b90615a7f565b80601f016020809104026020016040519081016040528092919081815260200182805461495790615a7f565b80156149a45780601f10614979576101008083540402835291602001916149a4565b820191906000526020600020905b81548152906001019060200180831161498757829003601f168201915b505050505081526020016003820180546149bd90615a7f565b80601f01602080910402602001604051908101604052809291908181526020018280546149e990615a7f565b8015614a365780601f10614a0b57610100808354040283529160200191614a36565b820191906000526020600020905b815481529060010190602001808311614a1957829003601f168201915b505050918352505060048201546001600160a01b031660208201526005820154604082015260068201546060820152600782018054608090920191614a7a90615a7f565b80601f0160208091040260200160405190810160405280929190818152602001828054614aa690615a7f565b8015614af35780601f10614ac857610100808354040283529160200191614af3565b820191906000526020600020905b815481529060010190602001808311614ad657829003601f168201915b50505091835250506008919091015460ff808216151560208401526101009091041615156040909101528351849084908110614b3157614b31615a69565b60200260200101819052508180614b4790615acf565b9250505b80614b5581615acf565b915050614817565b5060008167ffffffffffffffff811115614b7957614b796154df565b604051908082528060200260200182016040528015614c0d57816020015b614bfa6040518061014001604052806000815260200160608152602001606081526020016060815260200160006001600160a01b031681526020016000815260200160008152602001606081526020016000151581526020016000151581525090565b815260200190600190039081614b975790505b50905060005b82811015610a7657838181518110614c2d57614c2d615a69565b6020026020010151828281518110614c4757614c47615a69565b60200260200101819052508080614c5d90615acf565b915050614c13565b60008181548110614c7857614c78615a69565b600091825260209091206008600990920201015460ff161515600114614ce05760405162461bcd60e51b815260206004820152601860248201527f4c616e64206973206e6f742079657420766572696669656400000000000000006044820152606401610acb565b60008181548110614cf357614cf3615a69565b600091825260209091206008600990920201015460ff610100909104161515600114614d615760405162461bcd60e51b815260206004820152601460248201527f4c616e64206973206e6f7420666f722073616c650000000000000000000000006044820152606401610acb565b60003411614dd75760405162461bcd60e51b815260206004820152603460248201527f496e73756666696369656e742066756e64732c20506c6561736520596f75207060448201527f6179206d6f7265207468616e20302065746865720000000000000000000000006064820152608401610acb565b6000808281548110614deb57614deb615a69565b600091825260208220600460099092020101546040516001600160a01b03909116925082913480156108fc02929091818181858888f19350505050158015614e37573d6000803e3d6000fd5b503360008381548110614e4c57614e4c615a69565b6000918252602080832060046009909302019190910180546001600160a01b03949094166001600160a01b0319948516179055848252600690526040812080549092163317909155805481908490811061150457611504615a69565b60608060606000806000808781548110614ec457614ec4615a69565b600091825260209091206008600990920201015460ff161515600114614f2c5760405162461bcd60e51b815260206004820152601860248201527f4c616e64206973206e6f742079657420766572696669656400000000000000006044820152606401610acb565b60008781548110614f3f57614f3f615a69565b906000526020600020906009020160010160008881548110614f6357614f63615a69565b906000526020600020906009020160020160008981548110614f8757614f87615a69565b906000526020600020906009020160030160008a81548110614fab57614fab615a69565b90600052602060002090600902016005015460008b81548110614fd057614fd0615a69565b90600052602060002090600902016006015460008c81548110614ff557614ff5615a69565b906000526020600020906009020160080160019054906101000a900460ff1685805461502090615a7f565b80601f016020809104026020016040519081016040528092919081815260200182805461504c90615a7f565b80156150995780601f1061506e57610100808354040283529160200191615099565b820191906000526020600020905b81548152906001019060200180831161507c57829003601f168201915b505050505095508480546150ac90615a7f565b80601f01602080910402602001604051908101604052809291908181526020018280546150d890615a7f565b80156151255780601f106150fa57610100808354040283529160200191615125565b820191906000526020600020905b81548152906001019060200180831161510857829003601f168201915b5050505050945083805461513890615a7f565b80601f016020809104026020016040519081016040528092919081815260200182805461516490615a7f565b80156151b15780601f10615186576101008083540402835291602001916151b1565b820191906000526020600020905b81548152906001019060200180831161519457829003601f168201915b5050505050935095509550955095509550955091939550919395565b606060008290506000815167ffffffffffffffff8111156151f0576151f06154df565b6040519080825280601f01601f19166020018201604052801561521a576020820181803683370190505b50905060005b8251811015610a7657604183828151811061523d5761523d615a69565b016020015160f81c1080159061526d5750605a83828151811061526257615262615a69565b016020015160f81c11155b156152e75782818151811061528457615284615a69565b602001015160f81c60f81b60f81c602061529e9190615c89565b60f81b8282815181106152b3576152b3615a69565b60200101907effffffffffffffffffffffffffffffffffffffffffffffffffffffffffffff1916908160001a905350615346565b8281815181106152f9576152f9615a69565b602001015160f81c60f81b82828151811061531657615316615a69565b60200101907effffffffffffffffffffffffffffffffffffffffffffffffffffffffffffff1916908160001a9053505b8061535081615acf565b915050615220565b60005b8381101561537357818101518382015260200161535b565b50506000910152565b60008151808452615394816020860160208601615358565b601f01601f19169290920160200192915050565b60006020808301818452808551808352604092508286019150828160051b87010184880160005b838110156154d157603f19898403018552815180518452878101516001600160a01b03168885015286810151610140888601819052906154118287018261537c565b9150506060808301518683038288015261542b838261537c565b9250505060808083015186830382880152615446838261537c565b9250505060a08083015186830382880152615461838261537c565b9250505060c0808301518683038288015261547c838261537c565b9250505060e08083015186830382880152615497838261537c565b925050506101008083015181870152506101208083015192506154bd8187018415159052565b5095880195935050908601906001016153cf565b509098975050505050505050565b634e487b7160e01b600052604160045260246000fd5b600082601f83011261550657600080fd5b813567ffffffffffffffff80821115615521576155216154df565b604051601f8301601f19908116603f01168101908282118183101715615549576155496154df565b8160405283815286602085880101111561556257600080fd5b836020870160208301376000602085830101528094505050505092915050565b60008060008060008060c0878903121561559b57600080fd5b863567ffffffffffffffff808211156155b357600080fd5b6155bf8a838b016154f5565b975060208901359150808211156155d557600080fd5b6155e18a838b016154f5565b965060408901359150808211156155f757600080fd5b6156038a838b016154f5565b9550606089013591508082111561561957600080fd5b6156258a838b016154f5565b9450608089013591508082111561563b57600080fd5b6156478a838b016154f5565b935060a089013591508082111561565d57600080fd5b5061566a89828a016154f5565b9150509295509295509295565b60006020828403121561568957600080fd5b5035919050565b60006020808301818452808551808352604092508286019150828160051b87010184880160005b838110156154d157603f1989840301855281516101408151855288820151818a8701526156e68287018261537c565b91505087820151858203898701526156fe828261537c565b91505060608083015186830382880152615718838261537c565b92505050608080830151615736828801826001600160a01b03169052565b505060a0828101519086015260c0808301519086015260e08083015186830382880152615763838261537c565b925050506101008083015161577b8288018215159052565b5050610120918201511515949091019390935293860193908601906001016156b7565b600080604083850312156157b157600080fd5b50508035926020909101359150565b6000602082840312156157d257600080fd5b813567ffffffffffffffff8111156157e957600080fd5b6157f5848285016154f5565b949350505050565b60008060006060848603121561581257600080fd5b83356001600160a01b038116811461582957600080fd5b9250602084013567ffffffffffffffff8082111561584657600080fd5b615852878388016154f5565b9350604086013591508082111561586857600080fd5b50615875868287016154f5565b9150509250925092565b60006020808301818452808551808352604092508286019150828160051b87010184880160005b838110156154d157603f19898403018552815160c0815185526001600160a01b038983015116898601528782015181898701526158e58287018261537c565b915050606080830151868303828801526158ff838261537c565b6080858101519089015260a094850151949097019390935250505093860193908601906001016158a6565b600080600080600080600060e0888a03121561594557600080fd5b873567ffffffffffffffff8082111561595d57600080fd5b6159698b838c016154f5565b985060208a013591508082111561597f57600080fd5b61598b8b838c016154f5565b975060408a01359150808211156159a157600080fd5b6159ad8b838c016154f5565b965060608a01359150808211156159c357600080fd5b6159cf8b838c016154f5565b955060808a0135945060a08a0135935060c08a01359150808211156159f357600080fd5b50615a008a828b016154f5565b91505092959891949750929550565b60c081526000615a2260c083018961537c565b8281036020840152615a34818961537c565b90508281036040840152615a48818861537c565b606084019690965250506080810192909252151560a0909101529392505050565b634e487b7160e01b600052603260045260246000fd5b600181811c90821680615a9357607f821691505b602082108103615ab357634e487b7160e01b600052602260045260246000fd5b50919050565b634e487b7160e01b600052601160045260246000fd5b600060018201615ae157615ae1615ab9565b5060010190565b601f821115615b3257600081815260208120601f850160051c81016020861015615b0f5750805b601f850160051c820191505b81811015615b2e57828155600101615b1b565b5050505b505050565b815167ffffffffffffffff811115615b5157615b516154df565b615b6581615b5f8454615a7f565b84615ae8565b602080601f831160018114615b9a5760008415615b825750858301515b600019600386901b1c1916600185901b178555615b2e565b600085815260208120601f198616915b82811015615bc957888601518255948401946001909101908401615baa565b5085821015615be75787850151600019600388901b60f8161c191681555b5050505050600190811b01905550565b60008251615c09818460208701615358565b9190910192915050565b6000808354615c2181615a7f565b60018281168015615c395760018114615c4e57615c7d565b60ff1984168752821515830287019450615c7d565b8760005260208060002060005b85811015615c745781548a820152908401908201615c5b565b50505082870194505b50929695505050505050565b60ff8181168382160190811115615ca257615ca2615ab9565b9291505056fea26469706673582212208f93e5ab95f4c6d3c1e76d06b76aae6dc63c9cef875837127f4ce90a79a9a1da64736f6c63430008110033",
  "linkReferences": {},
  "deployedLinkReferences": {}
}